:020000040800F2
:10000000D807002029020008971800086715000883
:10001000951800083B0400089D1D00080000000022
:100020000000000000000000000000009B18000815
:100030003D04000800000000991800089D18000801
:10004000430200084302000843020008430200087C
:10005000430200084302000843020008430200086C
:10006000430200084302000843020008430200085C
:10007000430200084302000843020008430200084C
:10008000430200084302000843020008430200083C
:10009000430200084302000843020008430200082C
:1000A000430200084302000843020008430200081C
:1000B000430200084302000843020008430200080C
:1000C00043020008430200084302000843020008FC
:1000D00043020008430200084302000843020008EC
:1000E00043020008430200084302000843020008DC
:1000F00043020008430200084302000843020008CC
:1001000043020008430200084302000843020008BB
:1001100043020008430200084302000843020008AB
:10012000430200084302000843020008430200089B
:10013000430200084302000843020008430200088B
:10014000430200084302000843020008430200087B
:10015000430200084302000843020008430200086B
:10016000430200084302000843020008430200085B
:100170004302000843020008430200080000000098
:10018000430200084302000800F002F800F03CF8C7
:100190000AA090E8000C82448344AAF10107DA45E2
:1001A00001D100F031F8AFF2090EBAE80F0013F0F8
:1001B000010F18BFFB1A43F0010318477C340000FD
:1001C0009C340000103A24BF78C878C1FAD852078E
:1001D00024BF30C830C144BF04680C6070470000C1
:1001E0000023002400250026103A28BF78C1FBD840
:1001F000520728BF30C148BF0B6070471FB503F0DE
:1002000074F91FBD10B510BD00F0E2F81146FFF7FC
:10021000F5FF02F085FB00F000F903B4FFF7F2FFF1
:1002200003BC00F003F90000094880470948004773
:10023000FEE7FEE7FEE7FEE7FEE7FEE7FEE7FEE796
:10024000FEE7FEE704480549054A064B70470000F3
:100250003519000889010008D8010020D8070020BE
:10026000D8030020D803002053EA020C00F0698074
:100270002DE9F04B4FF00006002B1FBFB3FA83F5BA
:1002800003FA05F424FA05F65E4012BF1643B2FAEB
:1002900082F502FA05F4C5F120051EBF22FA05FC1D
:1002A00044EA0C04203556EA044C4FEA144418BFC3
:1002B000641C4FF000084FF00009904271EB030CF2
:1002C00039D3002919BFB1FA81F701FA07F6B0FA5C
:1002D00080F700FA07F6C7F120071EBF20FA07FCD7
:1002E00046EA0C062037B6FBF4FCA7EB0507103FE7
:1002F00007F01F0BCBF120060CFA0BFB2CFA06F6CD
:1003000044BFB3460026202FA4BF5E464FF0000B2B
:100310005BEA060C08BF4FF0010B19EB0B09ABFBB6
:10032000027C48EB0608C01B06FB02CC0BFB03CC8F
:1003300071EB0C01C1E70B46024641464846BDE859
:10034000F08B13B54FF000004FF00001AFF30080C9
:10035000BDE81C4070474FF0000200B513469446BC
:100360009646203922BFA0E80C50A0E80C50B1F10D
:100370002001BFF4F7AF090728BFA0E80C5048BF21
:100380000CC05DF804EB890028BF40F8042B08BFBF
:10039000704748BF20F8022B11F0804F18BF00F8BB
:1003A000012B704770477047704710B500F008F890
:1003B000006810BD10B5044600F002F8046010BDDE
:1003C00000487047780100200048704778010020FD
:1003D0007546FFF7F9FFAE4605006946534620F023
:1003E0000700854618B020B5FFF72CFFBDE8204078
:1003F0004FF000064FF000074FF000084FF0000BE1
:1004000021F00701AC46ACE8C009ACE8C009ACE893
:10041000C009ACE8C0098D46704710B50446AFF37B
:1004200000802046BDE81040FFF7F7BE01491820C4
:10043000ABBEFEE7260002007047FEE770470000F3
:1004400030B5B3F5804F05D06FF0704140F8221001
:10045000002030BD8C690B688D6823434C68898906
:10046000240144EA0524234343EA014150F82230A1
:10047000014C23401943E9E70000F0CF10B50A68AA
:1004800050F8223023F0010340F822308C68082C09
:1004900023D000234A682243CC681C430B692243C3
:1004A0001A434B690E4C1A43CB691A430B6A1A4321
:1004B0004B6A1A438B6A1A43CB6A1A430B6B1A4373
:1004C0008B691343CA6B09681A4350F82130A34360
:1004D000134340F82130002010BD4023DAE700002C
:1004E0007FFF0F0030B5D1E9003443EA04138C6874
:1004F0008D89240244EA054423430C8A094D00EB0C
:10050000820005EB045423430C7D6D0105EB04646C
:10051000896923430B43416801F040410B43436029
:10052000002030BD0000F0FF70B5044600F040F937
:100530000546601C02D004480078044400F038F9F5
:10054000401BA042FAD370BD10000020F0B587B068
:1005500014216846FFF7FFFE15480168002924D1E1
:100560000121016013480024016841F0010101608C
:100570000068022500F0010005904FF4F060CDE91D
:10058000000502AA03260C2782E8D00069460A4823
:1005900000F016F84EF2B300CDE9000502AA694654
:1005A00082E8D000054800F00BF807B0F0BD00006D
:1005B000040000203838024000100240000C0240C5
:1005C0002DE9F84FDFF8BCA10022012503264FF0EA
:1005D0000F090AF1040BAAF1040E00BF0B6805FA1B
:1005E00002F42340A34270D10F7907F00307012FD3
:1005F00001D0022F16D187684FEA420806FA08FC9C
:1006000027EA0C07D1F80CC00CFA08FC4CEA070CDE
:10061000C0F808C04768A7430C79C4F3001494409D
:100620003C4344600C79E443A4070AD0C4684FEA11
:10063000420C06FA0CF7BC438F6807FA0CF7274305
:10064000C7600C7904F00304022C12D1D40800EB2B
:10065000840CDCF820405707FF0E09FA07F824EA5B
:100660000804D1F8108008FA07F848EA0408CCF822
:10067000208004684FEA420C06FA0CF7BC430F795D
:1006800007F0030707FA0CF7274307604C6814F4D8
:10069000403F70D03C4C276847F48047276024686F
:1006A00022F0030704F480440094384C07EB040C58
:1006B000DCF8084897074FEA177809FA08F7BC43AF
:1006C000334FB84202D1002724E054E0314FB84202
:1006D00001D101271EE0304FB84201D1022719E0B5
:1006E0002E4FB84201D1032714E02D4FB84201D15B
:1006F00004270FE02B4FB84201D105270AE02A4F0B
:10070000B84201D1062705E0284FB84201D107279A
:1007100000E0082707FA08F72743CCF80878DAF84A
:1007200000405746D1F804C09C435FEACC2C00D56A
:100730001C433C60DBF800405F46D1F804C09C439A
:100740005FEA8C2C00D51C433C60DEF80040774605
:10075000D1F804C09C435FEA8C3C00D51C433C604C
:10076000084F083F3C68D1F804C09C435FEACC3C8A
:1007700000D51C433C60521C102AFFF42FAFBDE88B
:10078000F88F0000083C014044380240003001402E
:10079000000002400004024000080240000C024039
:1007A000001002400014024000180240001C0240E9
:1007B00001488068704700001000002002488168EE
:1007C0000278114481607047100000200B4810B57A
:1007D000016841F400710160016841F480610160C9
:1007E000016841F480710160032000F061F80F207E
:1007F00000F006F800F024F8002010BD003C024094
:1008000070B50D4D04464FF47A712878B1FBF0F0C5
:100810000A490968B1FBF0F000F02EFB48B9102C32
:1008200007D200222146501E00F022F800206C6002
:1008300070BD012070BD0000100000201C000020D1
:100840000A4808B5016841F480410160006800F47D
:10085000804000900548001F016841F08051016010
:10086000006800F08050009008BD0000443802404D
:10087000F0B40E4B1B680C46C3F30223C3F107050B
:10088000042D00D90425191D072901D2002300E0F9
:10089000DB1E012606FA05F1491E214099409E40C3
:1008A000761E16403143F0BC01F091BA0CED00E029
:1008B000064900F0070208684FF6FF03184040EAB7
:1008C0000220034A10430860704700000CED00E06E
:1008D0000000FA052DE9F0470E46050065D0DFF867
:1008E0001481D8F80000F7B200F00700B04207D238
:1008F00088F80070D8F8000000F00700B04254D12A
:1009000028683D4C810712D5400703D5206840F484
:10091000E05020602878000703D5206840F460404C
:1009200020602068A96820F0F00008432060287843
:10093000C0072DD0304968680839012812D0022834
:1009400013D0032811D00968890700292DDA2168FE
:1009500021F0030101432160FFF72AFF814641F2A4
:10096000883A0EE009688903EFE709688901ECE736
:10097000FFF71EFFA0EB0901514502D90320BDE896
:10098000F0872068696800F00C00B0EB810FEFD1B0
:10099000D8F80010404601F00701B14207D90770AE
:1009A000006800F00700B04201D00120E7E7287896
:1009B000400705D52068E96820F4E050084320602E
:1009C0002878000706D52068296920F4604040EAAD
:1009D000C100206000F038F82168084AC1F3031113
:1009E000515CC8400649086006480068FFF708FFE8
:1009F0000020C4E7003C024008380240FE340008F2
:100A00001C00002014000020044805490068096803
:100A1000044AC1F38221515CC84070471C00002089
:100A2000083802400E350008044805490068096886
:100A3000044AC1F34231515CC84070471C00002099
:100A4000083802400E350008154810B5006810F04F
:100A50000C02144813D01449042A0FD0082A0ED1CE
:100A60000F4C241F2268236802F03F025B0207D567
:100A70002068C0F38810A0FB010106E0084610BD05
:100A80002168C1F38811A1FB00010023FFF7ECFBF3
:100A90002168C1F30141491C4900B0FBF1F010BDD0
:100AA000083802400024F40040787D012DE9F84F19
:100AB00004006ED02078DFF84C93C007A9F104053C
:100AC0004AD009F104000168C1F38101012908D06D
:100AD0000068C0F3810002280AD1D9F80000400262
:100AE00006D52868800337D560680028E1D033E058
:100AF0006068B0F5803F10D0B0F5A02F286810D006
:100B000020F480302860286820F480202860606805
:100B1000A8B1FFF74DFE06460DE0286840F480308E
:100B2000F4E740F480202860F7E700BFFFF740FEBD
:100B3000801B642873D828688003F7D50CE0FFF782
:100B400037FE064605E000BFFFF732FE801B642833
:100B5000F0D828688003F7D42078DFF8AC828007CB
:100B60004FF0000A3ED5A748001D016811F00C0F98
:100B700008D00068C0F3810002280BD1D9F800002A
:100B8000400207D42868800716D5E068012800D104
:100B900012E033E1E068B8B10120C8F80000FFF7C7
:100BA00007FE064605E000BFFFF702FE801B022895
:100BB000C0D828688007F7D52868216920F0F80098
:100BC00040EAC10028600DE0C8F800A0FFF7F0FD82
:100BD000064604E0FFF7ECFD801B02281FD82868BA
:100BE0008007F7D42078000722D5864F87486169AF
:100BF000703771B101210160FFF7DAFD064604E0AC
:100C0000FFF7D6FD801B022809D838688007F7D582
:100C10000EE0C0F800A0FFF7CBFD064605E082E03D
:100C2000FFF7C6FD801B02287DD838688007F7D4FF
:100C30002078400768D5DFF8CCB100270BF13C0BDA
:100C4000DBF80000C0000BD4DBF8001041F080514D
:100C5000CBF80010DBF80000012700F08050009076
:100C60006B4E3068C00510D4306840F4807030603E
:100C7000FFF79EFD009005E0FFF79AFD0099401AEE
:100C8000022850D83068C005F6D55E4EA0686C3694
:100C900001280FD00528306810D020F00100306006
:100CA000306820F004003060A068B8B1FFF780FD24
:100CB00000900FE0306840F00100F4E740F00400DD
:100CC0003060F7E7FFF774FD0099411A41F2883070
:100CD000814266D830688007F4D50EE0FFF768FDE2
:100CE000009007E0FFF764FD0099411A41F2883057
:100CF000814256D830688007F4D42FB1DBF8001059
:100D000021F08051CBF80010A069C8B33D49091DFE
:100D10000968C1F3810102294AD00228504607D050
:100D2000C8F8600000E03CE0FFF742FD04463BE00D
:100D30004746C8F86000FFF73BFD064605E000BFE8
:100D4000FFF736FD801B02282BD828688001F7D4D6
:100D5000D4E907010843A16A2E4A490802EB014180
:100D6000626A41EA8211084394F82C1040EA01615A
:100D7000C9F8001001203866FFF71AFD044606E0A6
:100D80003EE000BFFFF714FD001B022809D82868C9
:100D90008001F7D534E000BFFFF70AFD001B0228F1
:100DA00002D90320BDE8F88F28688001F4D427E039
:100DB0000128F7D0D9F80000E26900F480019142DF
:100DC0001CD1226A00F03F01914217D147F6C07151
:100DD000626A0140B1EB821F10D1A26A4FF0FF336B
:100DE00000F4403103EB5202B1EB024F06D194F80C
:100DF0002C1000F07060B0EB016F01D00120D1E742
:100E00000020CFE70438024000004742800E4742EE
:100E1000007000400000FFFF70B515460E4604004C
:100E200003D094F8490010B107E0012070BD002004
:100E300084F84800204600F01DF804F108012068FD
:100E4000FFF71CFB3146A2682068FFF74BFBD4E993
:100E500001022946236BFFF7F3FA2168A06851F8D5
:100E6000202042F0010241F82020012084F84900AE
:100E7000002070BDFFF76ABB10B5401EB0F1807F47
:100E800001D3012010BD4FF0E02460610F216017F5
:100E900000F09DFF0020A06107202061002010BD10
:100EA00010B590F83C20012A22D0012280F83C2085
:100EB000CA688C6822F4407222434C6822F4806233
:100EC00022430C6822F4006222430C6922F480520F
:100ED00022434C6922F400522243C969002322F4C0
:100EE00080420A4301684A6480F83C30002010BD0B
:100EF000022010BD70B590F83C20012A32D00124A8
:100F000080F83C40022280F83D2003685A689D68C2
:100F100022F070060A6832435A60134B02689A4204
:100F200014D0B2F1804F11D0104B9A420ED0104B1A
:100F30009A420BD00F4B9A4208D00F4B9A4205D0E1
:100F40000E4B9A4202D00E4B9A4204D1496825F0CA
:100F500080031943916080F83D40002180F83C10E7
:100F6000084670BD022070BD000001400004004032
:100F700000080040000C0040000401400040014017
:100F80000018004010B5040003D094F83D0010B1E3
:100F900007E0012010BD002084F83C00204600F04E
:100FA0001FF8022084F83D00211D206800F0CAFCD3
:100FB000012084F8460084F83E0084F83F0084F85D
:100FC000400084F8410084F8420084F8430084F82B
:100FD000440084F8450084F83D00002010BD000066
:100FE00008B500680649884208D10648016841F002
:100FF00001010160006800F00100009008BD0000E0
:10100000000001404438024070B5044690F83C00AE
:101010000025012817D0012684F83C60022084F8BE
:101020003D002068826822F0770222F47F428260CD
:101030000868502838D00DDC20284FD005DC90B34C
:10104000102811D14AE0022070BD302846D0402837
:101050000AD13BE060282FD070280DD0B0F5805F1A
:1010600003D0B0F5005F12D0012584F83D60002068
:1010700084F83C00284670BDCB68D1E90121206886
:1010800000F0D1FC2068816841F0770109E0CB686D
:10109000D1E90121206800F0C6FC2068816841F494
:1010A00080418160E1E719E0CA684968206800F082
:1010B0008FFD5021206806E0CA684968206800F06A
:1010C00098FD6021206800F0B8FCCEE7CA68496846
:1010D000206800F07DFD40212068F4E72268014689
:1010E0001046F0E710B586B0044614216846FFF7B5
:1010F00032F90E492068884216D10D480021026855
:1011000042F001020260006800F0010005904FF417
:10111000807000900220CDE901010120CDE903108B
:1011200069460448FFF74CFA06B010BD00000140C4
:10113000303802400000024070B5044690F83C0090
:1011400000260D4601280FD0012084F83C006AB12A
:10115000042A1DD0082A2FD00C2A3FD001260020B7
:1011600084F83C00304670BD022070BD206800F05D
:101170006DFC2068816941F0080181612068816906
:1011800021F004018161206881692A69114311E01D
:10119000206800F08BFC2068816941F40061816166
:1011A0002068816921F480618161206881692A69F0
:1011B00041EA02218161D2E7206800F0ADFC20689D
:1011C000C16941F00801C1612068C16921F00401D1
:1011D000C1612068C1692A69114311E0206800F0EB
:1011E000CFFC2068C16941F40061C1612068C16918
:1011F00021F48061C1612068C1692A6941EA022144
:10120000C161ACE710B5040003D094F83D0010B103
:1012100007E0012010BD002084F83C00204600F0CB
:101220001EF8022084F83D00211D206800F08AFB92
:10123000012084F8460084F83E0084F83F0084F8DA
:10124000400084F8410084F8420084F8430084F8A8
:10125000440084F8450084F83D00002010BD70472C
:1012600010B50446022249B104290ED0082913D032
:1012700094F84100012816D0012010BD94F83E00DA
:101280000128F9D184F83E200FE094F83F000128AE
:10129000F2D184F83F2008E094F840000128EBD117
:1012A00084F8402001E084F841200122206800F009
:1012B000ADFB16492068164A884201D0904203D1FE
:1012C000436C43F4004343642068884213D0B0F178
:1012D000804F10D00F4988420DD00F4988420AD064
:1012E0000E49884207D0904205D00D49884202D06D
:1012F0000C49884204D1816801F00701062903D016
:10130000016841F001010160002010BD00000140B2
:10131000000401400004004000080040000C0040B0
:10132000004001400018004070B5040004D094F85B
:101330003D00002510B106E0012070BD84F83C504E
:10134000204600F023F8242084F83D002068C1687E
:1013500021F40051C160204600F05EFC2068016964
:1013600021F4904101612068416921F02A01416125
:101370002068C16841F40051C1602564202084F8D0
:101380003D0084F83E00002070BD000010B586B01E
:10139000044614216846FEF7DEFF134920688842A0
:1013A00020D112480021026842F400320260006835
:1013B00000F4003005900D481038026842F0010238
:1013C0000260006800F0010005900C2000900220EF
:1013D000CDE90101032003900720049069460448E9
:1013E000FFF7EEF806B010BD004400404038024060
:1013F000000002402DE9F84F044690F83E009A465E
:1014000016460D46202853D1FDB1F6B194F83C00A4
:1014100001284DD0012084F83C00002727642220B9
:1014200084F83E002763FFF7C3F9A6858146E68569
:10143000A0684FF48058404501D1206940B12E4644
:101440005FF0000584F83C7027E00120BDE8F88FCC
:101450000026F7E74B46002220212046CDF800A0C9
:1014600000F060FC08B10320F0E726B1A068404519
:101470001BD038B108E020684068C0F3080025F8A8
:10148000020B07E0206980B12068406800F07F000F
:1014900006F8010BE08D401EE085E08D0028D9D1D3
:1014A000202084F83E000020D0E720684068EFE765
:1014B0000220CBE72DE9F843044690F83D001F4693
:1014C00016460D4620284CD1C5B1BEB194F83C005B
:1014D000012846D0012084F83C004FF00008C4F8F1
:1014E0004080212084F83D00FFF762F9A684814600
:1014F000E684A068B0F5805F03D004E00120BDE879
:10150000F883206928B12E465FF0000584F83C80FE
:101510000EE00026FAE78021204600F003FCA0B987
:10152000AEB116F8010B21684860E08C401EE084E3
:10153000E08C4B464FF0000200970028EBD14FF0B3
:101540004001204600F0EEFB30B10320D7E735F82C
:10155000020BC0F30800E6E7202084F83D000020DD
:10156000CDE70220CBE7FEE710B514460B46024656
:1015700000F08CF80248210A0170047010BD0000D0
:101580000000046030B504460E484FF4963540F232
:101590003F120078012806D0032804D0022805D085
:1015A000042803D007E01346EF2200E0EF230021D8
:1015B000084600F06BF80449200A08700C706D1E94
:1015C000FBD130BD0C0000200000046010B54FF0CE
:1015D000C044012020706420FEF7A6FF2820207060
:1015E000C0202070284826210170C12121701121BE
:1015F0000170C5212170352101703E210170C72184
:101600002170BE21017036212170482101703A21DC
:10161000217055210170B1212170002101701F211D
:1016200001702A2121700021017001700170EF21E9
:1016300001702B21217000210170017001210170C6
:101640003F21017034212170B721217007210170E1
:10165000B62121700A2101708221017027210170B9
:1016600000210170112020706420FEF75DFF292009
:1016700020706420FEF758FF2C202070BDE8104039
:101680000520FEF751BF00000000046070B54FF068
:10169000C0452A242C70094C060A26702070100AB6
:1016A000207022702B202870080A20702170180AE0
:1016B000207023702C20287070BD00000000046092
:1016C00010B501241149124B4FF0C042012805D03A
:1016D000022808D003280CD0042810D00C70362023
:1016E0001070882010E0022008703620107028202A
:1016F0000AE00320087036201070482004E004201F
:10170000087036201070E820187010BD0C00002002
:101710000000046000B587B01C216846FEF71BFE80
:1017200014494FF020404FF480520860124848603E
:1017300000208860C860086148618861C8610862EB
:10174000C1E90902C86208634863886348640621E6
:10175000CDE90010CDE9021004900590069000221A
:1017600069460448FFF758FB002801D072B6FEE72F
:1017700007B000BDAC000020040100A0114808B56E
:10178000016841F080010160016801F08001009171
:10179000016841F001010160016801F0010100915F
:1017A000016841F010010160016801F01001009131
:1017B000016841F008010160006800F00800009035
:1017C00008BD00003038024010B596B000240F94D8
:1017D00010941194129413941C2108A81494FEF7E9
:1017E000BAFD20216846FEF7B6FD29482749016069
:1017F00044F29F11C0E9011440F21971C0E90314C9
:1018000044618461FFF7BEFB08B172B6FEE74FF496
:1018100080500F900FA91E48FFF7F6FB08B172B673
:10182000FEE71B48FFF7EEFC08B172B6FEE7139423
:1018300013A917481494FFF75DFB08B172B6FEE7D1
:101840006020CDE908040A940B940C940D940022B6
:1018500008A90F480E94FFF76FFC08B172B6FEE7B7
:1018600000944FF40050CDE9044002940194039495
:10187000694607480794FFF713FB08B172B6FEE705
:101880000348FFF72FFC16B010BD00000000014018
:1018900020000020FEE7FEE770477047FEF78EBF8E
:1018A00030B593B030216846FEF755FD14210CA8E1
:1018B000FEF751FD1D480025016841F0805101608F
:1018C000006800F0805011901948016841F480418F
:1018D00001600068022400F4804011900120039010
:1018E00010200490009406940820CDE90750A82009
:1018F000CDE9090404200B906846FFF7D7F808B13A
:1019000072B6FEE70CA90F2081E831004FF4A05019
:101910000F904FF48050109005210CA8FEF7DAFFCD
:10192000002801D072B6FEE713B030BD4038024047
:10193000007000400248016841F470010160704786
:1019400088ED00E0F0B50268254C264D264E274F65
:10195000274B4FF0804CA04209D0604507D0A842E9
:1019600005D0B04203D0B84201D0984204D122F051
:10197000700E4A6842EA0E02A0421BD0604519D0A0
:10198000A84217D0B04215D0B84213D0984211D017
:10199000184DA8420ED0184DA8420BD0174DA842A2
:1019A00008D0174DA84205D0164DA84202D0164DBA
:1019B000A84203D122F44075CA682A434D6922F037
:1019C00080022A4302608A68C2620A688262A04278
:1019D00001D0984201D10969016301214161F0BD43
:1019E000000001400004004000080040000C0040DE
:1019F0000004014000400140004401400048014013
:101A000000180040001C00400020004010B501F00C
:101A10001F030121046A99408C430462016A9A40C1
:101A20001143016210BD10B5846842EA032224F418
:101A30007F440A432243826010BD826822F0700214
:101A40000A4342F00701816070470000F0B5026A66
:101A500022F001020262036A42688469124E24F095
:101A600073050C682C4323F002058B682B430D4D46
:101A7000A84201D0B04205D123F00807CB683B4310
:101A800023F00403A84201D0B04205D14D6922F4ED
:101A9000407215438A692A43426084614968416300
:101AA0000362F0BD0000014000040140F0B5026A8D
:101AB00022F010020262026A436884690D6824F40D
:101AC000E64444EA05248D6822F0200242EA051229
:101AD0000F4D104EA84201D0B04206D1CF6822F07F
:101AE000800242EA071222F04002A84201D0B0422E
:101AF00007D14D6923F4406343EA85038D6943EAC6
:101B0000850343608461496881630262F0BD00001F
:101B10000000014000040140F0B5026A22F4807226
:101B20000262026A4368C46922F4007224F07305F9
:101B30000C68124E2C438D6842EA05220E4DA842D5
:101B400001D0B04206D1CF6822F4006242EA0722F7
:101B500022F48062A84201D0B04207D14D6923F43B
:101B6000405343EA05138D6943EA05134360C4619A
:101B70004968C1630262F0BD0000014000040140F9
:101B800030B5026A22F480520262046A4268C36974
:101B90000D6823F4E64343EA05238D6824F40054DA
:101BA00044EA0534084DA84202D0084DA84204D1A9
:101BB0004D6922F4804242EA85124260C36149685D
:101BC0000164046230BD00000000014000040140D7
:101BD00010B5036A046A24F001040462846924F0E5
:101BE000F00444EA021423F00A020A438461026208
:101BF00010BD10B5036A23F0100303628369046A01
:101C000023F4704343EA023224F0A00343EA0111B3
:101C10008261016210BD000070B504460068016970
:101C2000E26821F44051114301612169A068E26931
:101C300008436169114308432168CA6849F20C638B
:101C40009A430243CA6020684169A26921F4407145
:101C50001143416131492068884202D030498842AD
:101C600002D1FEF7E1FE01E0FEF7CEFEE2690023BD
:101C7000192164253226B2F5004F626828D0A0FBF6
:101C80000101930F9200FEF7EFFA0146B0FBF5F069
:101C90006FF01802504301EB800006EB0010B0FB20
:101CA000F5F000F0F002B1FBF5F002EB0012B1FB31
:101CB000F5F06FF01803584301EB800006EB0010BD
:101CC000B0FBF5F000F00F0021681044886070BD93
:101CD000A0FB010192185B41FEF7C6FA0146B0FB7A
:101CE000F5F00201B1FBF5F06FF01803584301EB7A
:101CF000800006EBC000B0FBF5F000F0F80002EB4E
:101D00004002B1FBF5F0584301EB800006EBC00048
:101D1000B0FBF5F000F00700D6E70000001001402E
:101D2000001401402DE9F041984617460E4604463E
:101D3000069D27E0681C25D02DB1FEF739FDA0EBEC
:101D40000800A8421ED920680C3050E8001F21F47A
:101D5000D07140E80012002AF5D12068143050E814
:101D6000001F21F0010140E80012002AF5D12020D7
:101D700084F83D0084F83E00002084F83C000320F5
:101D8000BDE8F0812068006836EA000004D0002039
:101D9000B842CFD00020F3E70120F9E7FEE703B413
:101DA00001984100009850EAC12018BF04204A0D54
:101DB00018BF40F0010040F2FF72B2EB515F08BF64
:101DC00040F00200012808BF052002B07047090753
:101DD000090E002804DB00F1E02080F800147047B1
:101DE00000F00F0000F1E02080F8141D70470000A3
:101DF00010B52F499FED2C1B2DED020B84B00598DB
:101E000020F000408842D8BF9DED040B2DDD29490C
:101E1000884209D1049840B94FF00100FEF7CAFA90
:101E200000F0A2FC06B010BD05DB9DED040B00F038
:101E30008FFC06B010BD68469DED040B00F0A0F8C5
:101E400010F0030004BF9DED021B9DED000B0CD0B4
:101E500001280ED09DED021B9DED000B022817D02E
:101E6000012000F0DDFB06B010BD00F0A5FA06B0C1
:101E700010BD9DED021B9DED000B012000F0D0FB7D
:101E800051EC100B00F006FE06B041EC100B10BD3B
:101E900000F092FA51EC100B00F0FCFD06B041ECA2
:101EA000100B10BD0000000000000000000000004A
:101EB000FB21E93F0000F07F10B52F499FED2C1B5F
:101EC0002DED020B84B0059820F000408842DCBF65
:101ED00000209DED040B32DD2849884209D1049889
:101EE00040B94FF00100FEF765FA00F03DFC06B086
:101EF00010BD05DB9DED040B00F02AFC06B010BD03
:101F000068469DED040B00F03BF810F0030011D083
:101F1000012818D09DED021B9DED000B02281AD060
:101F200000F04AFA51EC100B00F0B4FD06B041ECA1
:101F3000100B10BD9DED021B9DED000B012000F06C
:101F40006FFB06B010BD9DED021B9DED000B00F078
:101F500033FA06B010BD012000F062FB51EC100B0B
:101F600000F098FD06B041EC100B10BD0000000021
:101F70000000000000000000FB21E93F0000F07FAE
:101F80002DE9F14F04462DED020B2DED088B8AB0A3
:101F90009FEDE70B80ED020B139EE74826F000450E
:101FA00085420ADC9DED120B002084ED000B0AB087
:101FB000BDEC088B03B0BDE8F08FE0489FEDE0ABCF
:101FC0009FEDE1BBA84247DDE14F9FEDE39B9FED15
:101FD000E48B9DED120B53EC1A2B51EC100B002EE1
:101FE0001CDD01F027F941EC100BBD4208D053EC89
:101FF0001B2B51EC100B01F01DF9C4E900010BE0A3
:1020000053EC192B51EC100B01F014F953EC182B75
:1020100001F010F9C4E900010120C8E700F078FDE3
:1020200041EC100BBD4208D053EC1B2B51EC100BB4
:1020300000F06EFDC4E900010BE053EC192B51ECEC
:10204000100B00F065FD53EC182B00F061FDC4E9A6
:1020500000014FF0FF30AAE7C348A84279DB9DEDAD
:10206000120B51EC100B00F09FFB41EC180B9FED95
:10207000C00B53EC102B00F0D3FF9FEDBF1B53ECB4
:10208000112B00F045FD00F043FF074600F09DFFD7
:1020900041EC190B53EC1A2B00F0C2FF53EC182B38
:1020A00001F0BCF841EC180B53EC1B2B51EC190B55
:1020B00000F0B6FFDFF8C8A241EC100B4FEA15584C
:1020C0000125FA4453EC102B51EC180B01F0B2F837
:1020D000032DC4E900013DD0C1F30A5005EB4511C1
:1020E000A8EB00001139814234DA0AEB051BB0EE8F
:1020F00048AA9BED000BF0EE68AA53EC102B51ECB4
:10210000190B00F08DFF41EC1B0B51EC1A0B53EC3B
:102110001B2B01F08FF841EC180B51EC1A0B53EC10
:10212000182B01F087F853EC1B2B01F083F89BED83
:10213000020B41EC1A0B53EC102B51EC190B00F075
:102140006FFF53EC1A2B01F075F841EC100B6D1C6E
:10215000B8E70EE0002EA8BF3846BFF628AF94EDD2
:10216000000B51EC100B00F095FCC4E90001784223
:102170001DE7C6F3130040F4801EC6F30A50A0F218
:10218000F530471100F01F05C5F12000DDF848B01B
:1021900008900020069007900520EC467949002D14
:1021A00007EB0002794408BF51F8221009D051F81A
:1021B000223001EB8201AB404A68089922FA01F112
:1021C0001943A1FB0E26A1FB0B131A449A4234BFFC
:1021D0000123002303EB06080CEB8003D3E901A6DF
:1021E0000E448E4234BF0121002192448A4411B131
:1021F000924502D903E0924501D2012100E000217D
:10220000C3E901A641444CF82010011EA0F10100D1
:10221000C4DC029800F10050850F0298DDE90367E5
:102220008000DDF8148000F0D0FE41EC1A0B30463F
:1022300000F0E2FE9FED541B53EC112B00F0F0FE7A
:1022400041EC1B0B384600F0D7FE9FED511B53ECC1
:10225000112B00F0E5FE41EC180B404600F0CCFEDF
:102260009FED4D1B53EC112B00F0DAFE41EC190BE6
:1022700051EC180B53EC192B00F04AFC53EC1B2BC0
:1022800000F046FC53EC1A2B00F042FCCDE90801AB
:10229000002008909DED080B53EC1A2B51EC100B0D
:1022A00000F0C8FF53EC1B2B00F0C4FF53EC182BBD
:1022B00000F0C0FF53EC192B00F0B0FF9FED381B6E
:1022C00053EC112B00F0ACFE9FED370B41EC180BDB
:1022D00053EC102B9DED080B51EC100B00F0A0FE01
:1022E00053EC182B00F014FC9FED310B41EC180B54
:1022F00053EC102B9DED080B51EC100B00F090FEF1
:1023000053EC182B00F004FC41EC100B139810F068
:10231000004F06D06D4251EC100B00F0BBFB41ECBE
:10232000100B284684ED000B41E600000000000081
:102330000000000000000000FB21E93F7CD90240C2
:1023400000004054FB21F93F3163621A61B4D03D73
:10235000FB21F93F000000000000601A61B4D03D8D
:102360007370032E8A19A33BFB2139410000000042
:1023700083C8C96D305FE43F000000000000E03F0B
:1023800082140000D0130000000000000000103E86
:10239000000000000000103C000000000000103AA7
:1023A000182D4454FB21F93D3326A611460B113C50
:1023B00000000054FB21F93D10B52DED040B2DED6F
:1023C000088B82B0B0EE419AF0EE619A0B9820F043
:1023D00000449FED4BABB4F1795F11DA9DED0A0B30
:1023E00051EC100B00F094FD002801BFB0EE4A0A3A
:1023F000F0EE6A0A02B0BDEC088B04BF04B010BD59
:102400009DED0A0B53EC102B51EC100B00F008FE65
:1024100041EC180B3C480621B0EE480AF0EE680A81
:10242000784400F081F853EC182B51EC100B00F0BD
:10243000F7FD9DED0A0B41EC1B0B53EC192B51ECF6
:10244000100B00F0EDFD41EC190B53EC1B2B51EC84
:10245000180B00F0E5FD53EC192B00F0EBFE9FED9F
:102460002C0B41EC190B53EC102B51EC180B00F01A
:10247000D7FD41EC100B2848844210DA53EC192B9D
:1024800051EC100B00F0D6FE53EC1A2B00F0C6FEF8
:1024900041EC100B02B0BDEC088B04B010BD1F481E
:1024A000A042BCBF9FED1E1B8DED001B06DBA4F5FB
:1024B00000100190002000909DED001B51EC100BCE
:1024C00053EC112B00F0B6FE9DED000B41EC180B08
:1024D00053EC102B51EC1A0B00F0ACFE41EC1A0B34
:1024E00053EC192B51EC180B00F0A4FE53EC1A2BF3
:1024F00000F094FE41EC100BCCE70000000000005F
:10250000000000000000F03FF41000000000000098
:10251000000000000000E03F3333D33F0000E93FFC
:10252000000000000000D23F70B504462DED028B84
:102530004D1E00EBC500B0EE408AF0EE608A90EDD3
:10254000000B35F0060017D053EC182B51EC100B94
:1025500000F066FD41EC100B6D1E04EBC50090ED24
:10256000001B51EC100B53EC112B00F0D1FA41EC95
:10257000100B35F00600E7D1022D36D0042D1CD00B
:10258000062D1CBFBDEC028B70BD53EC182B51EC1B
:10259000100B00F045FD94ED0A1B53EC112B00F0DD
:1025A000B7FA53EC182B00F03BFD94ED081B53ECED
:1025B000112B00F0ADFA41EC100B53EC182B51EC41
:1025C000100B00F02DFD94ED061B53EC112B00F0C9
:1025D0009FFA53EC182B00F023FD94ED040B53EC01
:1025E000102B00F095FA41EC100B53EC182B51EC2A
:1025F000100B00F015FD94ED021B53EC112B00F0B5
:1026000087FA53EC182B00F00BFD94ED001B53ECF4
:10261000112B00F07DFABDEC028B41EC100B70BD6C
:1026200031B504462DED040B2DED0A8BB0EE41BA09
:10263000F0EE61BA0B989DED0A0B20F00040B0F16E
:10264000795F0DDA51EC100BFFF7A9FB042808BFE6
:1026500000F09AF89DED0A0BBDEC0A8B05B030BD79
:1026600053EC102B51EC100B00F0DAFC41EC180B82
:102670009DED0A0B53EC182B51EC100B00F0D0FC25
:1026800041EC190B2C48B0EE480AF0EE680A05211F
:102690007844FFF749FF9FED2ACBB0EE40AAF0EE59
:1026A00060AA9CB353EC1C2B51EC190B00F0B8FC46
:1026B00041EC1C0B53EC1A2B51EC190B00F0B0FC45
:1026C0009FED210B41EC190B53EC102B51EC1B0B24
:1026D00000F0A6FC53EC192B00F0ACFD53EC182BCA
:1026E00000F09EFC53EC1B2B00F0A4FD53EC1C2BC4
:1026F00000F0A0FD9DED0A1B53EC112B00F08EFDA8
:10270000BDEC0A8B05B041EC100B30BDFFE753EC7C
:102710001A2B51EC180B00F083FC53EC1C2B00F02F
:10272000F7F953EC192B00F07BFC9DED0A1B53ECE1
:10273000112B00F0EDF9E3E77C0F00000000000032
:10274000495555555555C5BF000000000000E03FF4
:1027500010B553EC102B51EC100B00F0D9F941ECF3
:10276000100B10BD000000009FED050B10B553ECE1
:10277000102B51EC100B00F073FA41EC100B10BD54
:1027800000000000000000009FED050B10B553ECA9
:10279000102B51EC100B00F043FC41EC100B10BD62
:1027A000000000000000001082B0CDE9000121F01F
:1027B000004001909DED000B02B051EC100B7047F2
:1027C0000179407981EA51010140C80701D0002018
:1027D000704703207047000070B50446002520466E
:1027E00000F044F86D1C0646EDB2032801D01EB17E
:1027F0002DE0142DF3D32AE06079A179400840EA56
:10280000C11000F0F9FB9FED131B53EC112B00F0EE
:1028100007FC00F04BF96067B4F8070000F0ECFB30
:102820009FED0E1B53EC112B00F0FAFB9FED0D1BDF
:1028300053EC112B00F014FA00F038F9A06720795E
:1028400000F0010184F86F10800884F870003046B1
:1028500070BD0000000000000000903F000000007C
:102860000000D03F000000000000244010B50446E6
:10287000006864230522211DFEF7BCFD08B101207C
:1028800010BD2046BDE81040FFF79ABF0179A52989
:102890000FD141795A290CD18179052909D1C17902
:1028A00039B9017A29B9417A402902D1817A81293D
:1028B00001D00220704700214218491C1379C9B287
:1028C00082F868300729F7D30020704708B506A1C1
:1028D000642309680091006802226946FEF7EAFD58
:1028E0001420FDF721FE08BDA525000038B50446DB
:1028F0000AA0642300680090022269462068FEF75F
:10290000D9FD64230722211D2068FEF773FD08B15D
:10291000012038BD2046FFF7B9FF38BDA5200000D3
:102920004F4C2DED068B04F194052C60FDF74EFF06
:10293000FEF7B6FFFEF722FFFEF746FF494820608C
:102940004FF4E13060600020A0600C21E060C4E939
:102950000401A061E0612046FEF7E6FC08B172B612
:10296000FEE7FEF7D7FE404940F21A7048633C4844
:1029700000214838FEF774FC39489430FFF7A6FF71
:102980004FF47A70FDF7D0FDFEF720FE0220FEF72F
:1029900097FE0020FEF7F6FD344C31489430FFF7E7
:1029A000A5FF20700028F8D12D489430FFF714FFC0
:1029B00020700028F8D12E49A86F8842F4DB686F98
:1029C00000F022FD9FED2B8B53EC182B00F028FB21
:1029D0009FED2A9B53EC192B00F042F941EC100BB0
:1029E000FFF76AFAB0EE40AAF0EE60AAA86F00F016
:1029F0000BFD53EC1A2B00F013FB9FED221B53EC45
:102A0000112B00F085F800F0B3FA86B2686F00F081
:102A1000FBFC53EC182B00F003FB53EC192B00F0DC
:102A20001FF941EC100BFFF7E3F9B0EE408AF0EE2E
:102A3000608AA86F00F0E8FC53EC182B00F0F0FA65
:102A40009FED121B53EC112B00F062F800F090FA8E
:102A500080B24FF4FC623146FEF786FDA4E7000029
:102A600068000020004400400000014000000020F9
:102A7000CDCCCC3D1F85EB51B81E094000000000B5
:102A8000008066400000000000005440000000008C
:102A900000C0624081F00041704780F00040704704
:102AA00021F00041704720F00040704721F00042C3
:102AB000A2F16052B2F5801F01F0004328BFD2F1AD
:102AC0007F6C0BD95FEA001C43EAC20242EB5070F4
:102AD00018BF704728BF20F001007047B2F5801F73
:102AE000BCBF184670474FEA410C1CF5001F02D2CC
:102AF000084600F0FFBC70B500F03CFB0000008908
:102B0000FFF7F6BF4FF00040A0F5800070470000CF
:102B100010B591EA030F48BF83F0004300F19283A0
:102B2000841A71EB030C05D2121943EB0C03001B42
:102B300061EB0C01DFF824E14FEA1154A4EB135CC4
:102B40001EEA430F18BF9EEA445F73D023EA0E03C8
:102B5000DCF1200E21EA045143F4801332D322FA2F
:102B60000CFE10EB0E0023FA0CFE41EB0E01CCF133
:102B7000200E03FA0EFE10EB0E0051F10001B1F52C
:102B8000801FCCF1200E32D201EB045112FA0EF26A
:102B9000BDE8104058BF7047401C38BF5FEA420292
:102BA00018BF7047002814BF20F0010041F1000158
:102BB0004FEA410313F5001F38BF7047A1F1C04130
:102BC00000F026BB012A43EB0302ACF1200CDCF140
:102BD0001F0E32BF4FF0000E23FA0CF310EB030070
:102BE00041EB0451B4EB115FD0D0A1EB045101F5DE
:102BF000801149085FEA300001EB04510ED350F117
:102C0000000038BF12FA0EFE08D1BDE81040C9E737
:102C1000401C38BF5FEA4202CAD1C3E7BDE810409A
:102C20004FEA410313F5001F38BF7047A1F1C041BF
:102C300000F0EEBA9EEA445F08D011EA5E0FBDE8EC
:102C4000104004BF01F0004100207047BDE8104073
:102C500070B500F08FFA00BF64FBBE3E0000E0FFDD
:102C60002DE9C04130B4DFF8A0C23CEA111418BF0E
:102C70003CEA131400F0EC8081EA03051CEA11140D
:102C800044EAD57418BF1CEA131500F0C780A4EB02
:102C900005044FF0004545EAC12145EAC32341EA56
:102CA000505143EA525304F17F74994204F50034C1
:102CB0004FEAC0204FEAC22208BF904200F09C8039
:102CC0004FEA13650FF24016765D4FEA134506FB97
:102CD00005F7C7F1807706FB07F74FEAD737A7FB61
:102CE00003687642C8F58038A7FB06CE38BFA8F146
:102CF000010807FB08E64FF0000EA6FB028CE6FB7E
:102D000003CEDCF1000CCEF1004E38BFAEF1010E67
:102D1000A6FB0C584FF000074FF00005E6FB0E87AE
:102D2000A1FB08C6A0FB07CE16EB0E0645F1000579
:102D3000E1FB076515F1E04E7EBFA4F580345FEA44
:102D400046066D4116F1800745F100054FEA172749
:102D50004FEA066647EA0567A6F1DE46B6F1805FF0
:102D60004FEA15251FD9384624F0010C05EBC47134
:102D7000BCF1FE6F01EB0C1102D8F0BCBDE8008184
:102D800024425CBF01F5801E9EEAC47F02D4F0BCE1
:102D9000BDE80081244238D4F0BCA1F1C041BDE8B7
:102DA000004100F035BA4FEAD22242EA43524FEADC
:102DB000D323A7FB02864FEAD02040EA415007FB0D
:102DC00003661EEA0E0F4FEAD12105FB026658BFCB
:102DD000A6EB0056B6EB00564FEA520E4EEAC37E03
:102DE00018EB0E0E56EB530EBDD518EB02085E41E4
:102DF0007F1C55F10005B6E74FF480154FF0000732
:102E00004FF000064FF00008ADE7F0BC4FF00000B7
:102E100001F1C04101F00041BDE8008111EA0C1F41
:102E20000CEA131500D00CE013EA0C1F00F025800B
:102E30004FF00000F0BC81EA030101F00041BDE861
:102E40000081F0BCBDE8004181EA030100F0E0B977
:102E5000F0BCBDE8004170B500F08CF9097EFC3E85
:102E600000F007B881EA03014FF0000001F00041D3
:102E7000704781EA030100F0CBB9F0BCBDE8004126
:102E80004FF0000021497047FFFDFBF9F7F5F4F220
:102E9000F0EEEDEBE9E8E6E4E3E1E0DEDDDBDAD8F5
:102EA000D7D5D4D3D1D0CFCDCCCBCAC8C7C6C5C453
:102EB000C2C1C0BFBEBDBCBBBAB9B8B7B6B5B4B36A
:102EC000B2B1B0AFAEADACABAAA9A8A8A7A6A5A455
:102ED000A3A3A2A1A09F9F9E9D9C9C9B9A99999819
:102EE0009797969595949393929191908F8F8E8EBC
:102EF0008D8C8C8B8B8A8989888887878685858449
:102F000084838382828181800000FF070000F87F34
:102F10004FEA41034FEA5353A3F58063D3F11E03F5
:102F2000C8BFD3F1210C0CDD4FF0004242EAC122B0
:102F300042EA505232FA03FC8CEAE17CACEBE170DD
:102F40007047102BC4BF0020704703F5787CBCF19C
:102F5000FF3F04D06FF0004282EA2100704770B555
:102F600000F008F94992248000207047F2E7000041
:102F70004FEA1153A3F58063D3F11E03A8BFD3F129
:102F8000200C08DB4FF0004242EAC12252EA5052C4
:102F900032FA03F0704709420BD4102BC4BF002053
:102FA000704703F5787CBCF1FF3F05D04FF0FF3050
:102FB00070474FF00000704770B500F0DBF800BFBD
:102FC0004992248000207047F0E710F0004248BF8B
:102FD0004042B0FA80F310FA03F10AD0C3F11D03A6
:102FE00003F580634FEA415002EB035202EBD1211B
:102FF00070474FF000007047B0FA80F310FA03F109
:103000000AD0C3F11D0303F580634FEA41504FEA34
:10301000035202EBD12170474FF0000070470000CF
:10302000DFF848C170B51CEA111E1EBF1CEA13155B
:103030009EEA0C0F95EA0C0F00F06F8081EA030402
:1030400023EA4C134EEAD47E21EA4C1141F480115C
:1030500043F48013AE44A1FB024CA0FB0365AEF128
:103060007F7E361955EB0C05A1FB034C4CF1000398
:10307000A0FB021C16EB0C06654153F1000309424C
:1030800018BF46F0010613F4007F0BD14FEA03315D
:103090004FEA0530340341EA155140EA16506FF00B
:1030A00003020AE04FEAC3214FEAC520F40241EAD5
:1030B000555140EA56506FF0020202EB2E4201EBEE
:1030C000025585EACE710AD05FEA440C18BF24F09D
:1030D000004450F1000041F1000120EAD47040F2B8
:1030E000FE7C624500D270BDA84214BF4FF0804400
:1030F0004FF04044002E08BF0024BEF1806FA8BFEF
:10310000A1F1C041BDE8704080F282804FF0000024
:1031100001F1C04101F0004170479EEA0C0F0CEA3A
:10312000131518BF95EA0C0F06D04FF0000081EA86
:10313000030E0EF0004170BD00F01CF88900013E46
:1031400000F007B800F009B84FEA430C5FEA5C5C96
:1031500008D081EA030100F05BB84FEA410C5FEA56
:103160005C5CF6D14FF00000014970470000FF079A
:103170000000F87F0EF1020E2EF0030E5EF8046BD5
:10318000364205D4012A43EB030515F5001F12D87A
:10319000012841EB010C1CF5001F0CD80ED14FEAA1
:1031A000D17C15F5001F0CEB4C0C0CF1020C08BF88
:1031B0004CEBD37C04E04FF0080C01E04FEAD37CE9
:1031C0000CEB4C0526FA05F606F00706B6F1040CE2
:1031D00006D20EEB860CBDE870404CF0010C604747
:1031E000DFE80CF0090B02024FF000414FF0000045
:1031F000A1F5002170BD19461046012851EB0104CC
:1032000018BFD4F5001484BF002001F0004170BD48
:103210000808A0F500114FEA3101704791EA030F49
:1032200010B581F000413FF57BAC83F0004300F026
:1032300009B8000010B591EA030F48BF83F00043BE
:103240003FF56EAC841A71EB030C07D212198CF0A7
:10325000004C43EB0C03001B61EB0C01DFF8A4E115
:103260004FEA1154A4EB135C1EEA430F18BF9EEA09
:10327000445F00F0B08023EA6E03524221EA045119
:10328000C3EB6E0338BF5B1EDCF1200E25D322FAA0
:103290000CFE10EB0E0043FA0CFE41EB0E01CCF1DC
:1032A000200E03FA0EFE10EB0E0051F10001CCF1DE
:1032B000200E29D412FA0EF201EB0451BDE81040A1
:1032C00058BF7047401C1CBFB2F1004F7047002828
:1032D0000CBF491C20F00100704712EB020E43EBBB
:1032E000030218BF4FF0010E4EEA4202ACF1200C6F
:1032F000DCF11E0E54D943FA0CFE10EB0E0051F116
:10330000FF31CCF11E0ED5D50EF1010E12FA0EFED4
:10331000404141EB010101EB445C5FEA5C5C10D988
:1033200010EBDE7001EB045138BFBEF1004FBDE879
:10333000104018BF704700280CBF491C20F0010046
:10334000704730D24FEAD42C11F5001124F40064F8
:103350001BD0B1FA81F20B3AA41AA41ED2F12003B9
:10336000914030FA03F31943904001EBCC71002CEB
:1033700001EB0451BDE81040A8BF704701F1C04106
:103380004FF0000001F000417047B0FA80F310FAEE
:1033900003F100D110BDE41A173C4805C90AE4E75F
:1033A00001EB045110BD491001EB0451BDE8104080
:1033B0004FEA300002E04FF0000170474A0008BFBA
:1033C0000042F8D0B2F5001F28BF704701F000415D
:1033D0004FF0000070479EEA445F07D011EA5E0F8D
:1033E000BDE8104004BF002100207047BDE8104038
:1033F00070B5FFF7BFFE00BF40DFF63E83F000412F
:10340000104670470000E0FF43004FEAD30C4FEA3C
:103410003C0C43401FBF40070CF1605113F0FE4FBE
:1034200070471CF0006F03D100200CF00041704782
:103430000CF0004343EA507010B540EACC0000F0B5
:103440000EF800BF000000924FEA0001FFF7E0BE57
:103450004FF000414FF00000A1F5002170470EF140
:10346000020E2EF0030E5EF8044B244204D44FEA01
:103470004102B2F17F4F11D84FEA4003B3F17F4FC1
:103480000CD80ED14FEAD07CB2F17F4F0CEB4C0C34
:103490000CF1020C08BF4CEBD17C04E04FF0080C9F
:1034A00001E04FEAD17C0CEB4C0324FA03F404F066
:1034B0000704B4F1040C06D20EEB840CBDE81040F6
:1034C0004CF0010C6047DFE80CF0070802024FF0F7
:1034D0000040A0F5800010BD0846420018BFD2F1A0
:1034E000807288BF00F0004010BD4FF04070E1EEE8
:1034F000100A7047FF2141EAD050C0057047000014
:103500000000000000000102030406070809000093
:1035100000000102030400004C5555555555A53FC8
:103520007751C1166CC156BF9015CB19A001FA3E58
:10353000AD529C804F7E92BEC4B1B4BD9EEE213E82
:10354000D43888BEE9FAA8BD00004054FB21F93FF9
:103550003163621A61B4D03D0000601A61B4D03D9D
:103560007370032E8A19A33B0000002E8A19A33B17
:10357000C14920259A837B3900000000000000002B
:103580006E83F9A22915444ED15727FCC0DD34F5CE
:10359000999562DB4190433CAB6351FE61C5BBDE54
:1035A0003A6E24B7E0D24D42EA2E49061C92D10968
:1035B0001CEB1DFE3EA729B1F53582E88444BB2EE5
:1035C00026709CE9417E5FB439D69139F439538332
:1035D0008B5F849C3B28F9BDFF97F81F0F9805DE91
:1035E0008B112FEF1F6D0A5ACF7E366DB709CB278F
:1035F000663F464F2DEA5F9EC7BA27757BF1E5EB24
:10360000F739073DEA92528AB15FFB6B085D8D1F67
:10361000A6F810111111813FD561C119A0012ABF6F
:103620007DFEB157E31DC73EEB9C2B8AE6E55ABEF3
:103630007CD5CF5A3AD9E53D583600080000002025
:1036400020000000C4010008783600082000002097
:10365000B8070000E00100080000000000000000C2
:103660000000000001000000010000001000000048
:08367000000000000024F4003A
:040000050800018965
:00000001FF
