:020000040800F2
:10000000800D00202902000847150008D7130008BA
:10001000451500081F0400084D1A000800000000E4
:100020000000000000000000000000004B15000868
:100030002104000800000000491500084D150008C3
:10004000430200084302000843020008430200087C
:10005000430200084302000843020008430200086C
:10006000430200084302000843020008430200085C
:10007000430200084302000843020008430200084C
:10008000430200084302000843020008430200083C
:10009000430200084302000843020008430200082C
:1000A000430200084302000843020008430200081C
:1000B000430200084302000843020008430200080C
:1000C00043020008430200084302000843020008FC
:1000D00043020008430200084302000843020008EC
:1000E00043020008430200084302000843020008DC
:1000F00043020008430200084302000843020008CC
:1001000043020008430200084302000843020008BB
:1001100043020008430200084302000843020008AB
:10012000430200084302000843020008430200089B
:10013000430200084302000843020008430200088B
:10014000430200084302000843020008430200087B
:10015000430200084302000843020008430200086B
:10016000430200084302000843020008430200085B
:100170004302000843020008430200080000000098
:10018000430200084302000800F002F800F03CF8C7
:100190000AA090E8000C82448344AAF10107DA45E2
:1001A00001D100F031F8AFF2090EBAE80F0013F0F8
:1001B000010F18BFFB1A43F001031847C02E0000BF
:1001C000E02E0000103A24BF78C878C1FAD8520750
:1001D00024BF30C830C144BF04680C6070470000C1
:1001E0000023002400250026103A28BF78C1FBD840
:1001F000520728BF30C148BF0B6070471FB502F0DF
:1002000027FF1FBD10B510BD00F0CFF81146FFF756
:10021000F5FF02F05BF800F0EDF803B4FFF7F2FF32
:1002200003BC00F0F5F80000094880470948004782
:10023000FEE7FEE7FEE7FEE7FEE7FEE7FEE7FEE796
:10024000FEE7FEE704480549054A064B70470000F3
:10025000E51500088901000880070020800D0020B6
:10026000800900208009002053EA020C00F0698018
:100270002DE9F04B4FF00006002B1FBFB3FA83F5BA
:1002800003FA05F424FA05F65E4012BF1643B2FAEB
:1002900082F502FA05F4C5F120051EBF22FA05FC1D
:1002A00044EA0C04203556EA044C4FEA144418BFC3
:1002B000641C4FF000084FF00009904271EB030CF2
:1002C00039D3002919BFB1FA81F701FA07F6B0FA5C
:1002D00080F700FA07F6C7F120071EBF20FA07FCD7
:1002E00046EA0C062037B6FBF4FCA7EB0507103FE7
:1002F00007F01F0BCBF120060CFA0BFB2CFA06F6CD
:1003000044BFB3460026202FA4BF5E464FF0000B2B
:100310005BEA060C08BF4FF0010B19EB0B09ABFBB6
:10032000027C48EB0608C01B06FB02CC0BFB03CC8F
:1003300071EB0C01C1E70B46024641464846BDE859
:10034000F08B13B54FF000004FF00001AFF30080C9
:10035000BDE81C4070474FF0000200B513469446BC
:100360009646203922BFA0E80C50A0E80C50B1F10D
:100370002001BFF4F7AF090728BFA0E80C5048BF21
:100380000CC05DF804EB890028BF40F8042B08BFBF
:10039000704748BF20F8022B11F0804F18BF00F8BB
:1003A000012B7047704770477047754600F02CF876
:1003B000AE4605006946534620F00700854618B052
:1003C00020B5FFF73FFFBDE820404FF000064FF09B
:1003D00000074FF000084FF0000B21F00701AC467A
:1003E000ACE8C009ACE8C009ACE8C009ACE8C00999
:1003F0008D46704710B50446AFF300802046BDE837
:100400001040FFF70ABF0000004870472007002097
:1004100001491820ABBEFEE7260002007047FEE748
:100420007047000070B5044600F00CF90546601CEA
:1004300002D004480078044400F004F9401BA042B4
:10044000FAD370BD040000202DE9F84FDFF8BCA1FD
:100450000022012503264FF00F090AF1040BAAF12F
:10046000040E00BF0B6805FA02F42340A34270D1CA
:100470000F7907F00307012F01D0022F16D18768EB
:100480004FEA420806FA08FC27EA0C07D1F80CC02C
:100490000CFA08FC4CEA070CC0F808C04768A743F0
:1004A0000C79C4F3001494403C4344600C79E44359
:1004B000A4070AD0C4684FEA420C06FA0CF7BC4302
:1004C0008F6807FA0CF72743C7600C7904F0030420
:1004D000022C12D1D40800EB840CDCF82040570722
:1004E000FF0E09FA07F824EA0804D1F8108008FA88
:1004F00007F848EA0408CCF8208004684FEA420C68
:1005000006FA0CF7BC430F7907F0030707FA0CF75C
:10051000274307604C6814F4403F70D03C4C276878
:1005200047F480472760246822F0030704F48044DE
:100530000094384C07EB040CDCF8084897074FEAA6
:10054000177809FA08F7BC43334FB84202D10027A5
:1005500024E054E0314FB84201D101271EE0304F72
:10056000B84201D1022719E02E4FB84201D103272A
:1005700014E02D4FB84201D104270FE02B4FB842B1
:1005800001D105270AE02A4FB84201D1062705E02C
:10059000284FB84201D1072700E0082707FA08F7DB
:1005A0002743CCF80878DAF800405746D1F804C061
:1005B0009C435FEACC2C00D51C433C60DBF8004038
:1005C0005F46D1F804C09C435FEA8C2C00D51C43E5
:1005D0003C60DEF800407746D1F804C09C435FEAF7
:1005E0008C3C00D51C433C60084F083F3C68D1F868
:1005F00004C09C435FEACC3C00D51C433C60521CC9
:10060000102AFFF42FAFBDE8F88F0000083C01402E
:100610004438024000300140000002400004024023
:1006200000080240000C024000100240001402408A
:1006300000180240001C02400AB1816170470904A1
:10064000FBE70000014880687047000004000020BC
:1006500002488168027811448160704704000020DC
:100660000B4810B5016841F400710160016841F464
:1006700080610160016841F480710160032000F035
:1006800061F80F2000F006F800F024F8002010BDFB
:10069000003C024070B50D4D04464FF47A71287845
:1006A000B1FBF0F00A490968B1FBF0F000F0FEFA86
:1006B00048B9102C07D200222146501E00F022F823
:1006C00000206C6070BD012070BD0000040000209F
:1006D000100000200A4808B5016841F4804101601B
:1006E000006800F4804000900548001F016841F058
:1006F00080510160006800F08050009008BD00004B
:1007000044380240F0B40E4B1B680C46C3F302237E
:10071000C3F10705042D00D90425191D072901D2AD
:10072000002300E0DB1E012606FA05F1491E2140E8
:1007300099409E40761E16403143F0BC01F087B9C7
:100740000CED00E0064900F0070208684FF6FF03D1
:10075000184040EA0220034A104308607047000036
:100760000CED00E00000FA052DE9F0470E4605000B
:1007700065D0DFF81481D8F80000F7B200F0070068
:10078000B04207D288F80070D8F8000000F00700E7
:10079000B04254D128683D4C810712D5400703D59B
:1007A000206840F4E05020602878000703D52068D6
:1007B00040F4604020602068A96820F0F000084301
:1007C00020602878C0072DD0304968680839012892
:1007D00012D0022813D0032811D0096889070029F4
:1007E0002DDA216821F0030101432160FFF72AFF80
:1007F000814641F2883A0EE009688903EFE709680B
:100800008901ECE7FFF71EFFA0EB0901514502D972
:100810000320BDE8F0872068696800F00C00B0EBA9
:10082000810FEFD1D8F80010404601F00701B14226
:1008300007D90770006800F00700B04201D001201E
:10084000E7E72878400705D52068E96820F4E050FC
:10085000084320602878000706D52068296920F41D
:10086000604040EAC100206000F038F82168084A82
:10087000C1F30311515CC84006490860064800688E
:10088000FFF708FF0020C4E7003C024008380240A0
:1008900064300008100000200800002004480549CA
:1008A00000680968044AC1F38221515CC84070475E
:1008B0001000002008380240743000080448054940
:1008C00000680968044AC1F34231515CC84070476E
:1008D000100000200838024074300008154810B598
:1008E000006810F00C02144813D01449042A0FD0E9
:1008F000082A0ED10F4C241F2268236802F03F0201
:100900005B0207D52068C0F38810A0FB010106E058
:10091000084610BD2168C1F38811A1FB0001002326
:10092000FFF7A2FC2168C1F30141491C4900B0FB5B
:10093000F1F010BD083802400024F40040787D0139
:100940002DE9F84F04006ED02078DFF84C93C007F3
:10095000A9F104054AD009F104000168C1F381013D
:10096000012908D00068C0F3810002280AD1D9F813
:100970000000400206D52868800337D5606800284B
:10098000E1D033E06068B0F5803F10D0B0F5A02F23
:10099000286810D020F480302860286820F4802057
:1009A00028606068A8B1FFF74DFE06460DE0286894
:1009B00040F48030F4E740F480202860F7E700BF7F
:1009C000FFF740FE801B642873D828688003F7D5A2
:1009D0000CE0FFF737FE064605E000BFFFF732FEEA
:1009E000801B6428F0D828688003F7D42078DFF8CB
:1009F000AC8280074FF0000A3ED5A748001D016871
:100A000011F00C0F08D00068C0F3810002280BD150
:100A1000D9F80000400207D42868800716D5E0689E
:100A2000012800D112E033E1E068B8B10120C8F834
:100A30000000FFF707FE064605E000BFFFF702FED5
:100A4000801B0228C0D828688007F7D5286821694C
:100A500020F0F80040EAC10028600DE0C8F800A0CE
:100A6000FFF7F0FD064604E0FFF7ECFD801B0228CF
:100A70001FD828688007F7D42078000722D5864F32
:100A800087486169703771B101210160FFF7DAFDB4
:100A9000064604E0FFF7D6FD801B022809D8386817
:100AA0008007F7D50EE0C0F800A0FFF7CBFD0646A3
:100AB00005E082E0FFF7C6FD801B02287DD838687C
:100AC0008007F7D42078400768D5DFF8CCB100273D
:100AD0000BF13C0BDBF80000C0000BD4DBF800107E
:100AE00041F08051CBF80010DBF80000012700F046
:100AF000805000906B4E3068C00510D4306840F4D0
:100B000080703060FFF79EFD009005E0FFF79AFDD2
:100B10000099401A022850D83068C005F6D55E4EBC
:100B2000A0686C3601280FD00528306810D020F05E
:100B300001003060306820F004003060A068B8B177
:100B4000FFF780FD00900FE0306840F00100F4E70F
:100B500040F004003060F7E7FFF774FD0099411A98
:100B600041F28830814266D830688007F4D50EE0C3
:100B7000FFF768FD009007E0FFF764FD0099411A58
:100B800041F28830814256D830688007F4D42FB1C2
:100B9000DBF8001021F08051CBF80010A069C8B339
:100BA0003D49091D0968C1F3810102294AD0022883
:100BB000504607D0C8F8600000E03CE0FFF742FD77
:100BC00004463BE04746C8F86000FFF73BFD064699
:100BD00005E000BFFFF736FD801B02282BD82868F0
:100BE0008001F7D4D4E907010843A16A2E4A4908D5
:100BF00002EB0141626A41EA8211084394F82C1029
:100C000040EA0161C9F8001001203866FFF71AFDBB
:100C1000044606E03EE000BFFFF714FD001B02287B
:100C200009D828688001F7D534E000BFFFF70AFD36
:100C3000001B022802D90320BDE8F88F2868800134
:100C4000F4D427E00128F7D0D9F80000E26900F4D5
:100C5000800191421CD1226A00F03F01914217D1DC
:100C600047F6C071626A0140B1EB821F10D1A26ADF
:100C70004FF0FF3300F4403103EB5202B1EB024F6F
:100C800006D194F82C1000F07060B0EB016F01D029
:100C90000120D1E70020CFE704380240000047429E
:100CA000800E4742007000400000FFFF10B5401E5C
:100CB000B0F1807F01D3012010BD4FF0E0246061CE
:100CC0000F21601700F0C3FE0020A0610720206103
:100CD000002010BD10B590F83C20012A22D001223E
:100CE00080F83C20CA688C6822F4407222434C6829
:100CF00022F4806222430C6822F4006222430C69D1
:100D000022F4805222434C6922F400522243C969E2
:100D1000002322F480420A4301684A6480F83C3090
:100D2000002010BD022010BD70B590F83C20012AB3
:100D300032D0012480F83C40022280F83D20036834
:100D40005A689D6822F070060A6832435A60134B55
:100D500002689A4214D0B2F1804F11D0104B9A42DF
:100D60000ED0104B9A420BD00F4B9A4208D00F4B2B
:100D70009A4205D00E4B9A4202D00E4B9A4204D1B1
:100D8000496825F080031943916080F83D400021B7
:100D900080F83C10084670BD022070BD0000014084
:100DA0000004004000080040000C00400004014026
:100DB000004001400018004010B5040003D094F832
:100DC0003D0010B107E0012010BD002084F83C0078
:100DD000204600F01FF8022084F83D00211D206805
:100DE00000F008FC012084F8460084F83E0084F8F6
:100DF0003F0084F8400084F8410084F8420084F801
:100E0000430084F8440084F8450084F83D00002045
:100E100010BD000008B500680649884208D10648A0
:100E2000016841F001010160006800F001000090DC
:100E300008BD0000000001404438024070B504467F
:100E400090F83C000025012817D0012684F83C606A
:100E5000022084F83D002068826822F0770222F4A4
:100E60007F4282600868502838D00DDC20284FD09F
:100E700005DC90B3102811D14AE0022070BD302863
:100E800046D040280AD13BE060282FD070280DD0F2
:100E9000B0F5805F03D0B0F5005F12D0012584F873
:100EA0003D60002084F83C00284670BDCB68D1E945
:100EB0000121206800F00FFC2068816841F0770173
:100EC00009E0CB68D1E90121206800F004FC20682A
:100ED000816841F480418160E1E719E0CA684968AE
:100EE000206800F0CDFC5021206806E0CA684968FF
:100EF000206800F0D6FC6021206800F0F6FBCEE709
:100F0000CA684968206800F0BBFC40212068F4E70B
:100F1000226801461046F0E710B586B00446142159
:100F20006846FFF718FA0E492068884216D10D4826
:100F30000021026842F001020260006800F0010036
:100F400005904FF4807000900220CDE9010101204E
:100F5000CDE9031069460448FFF776FA06B010BDE4
:100F600000000140303802400000024070B50446E5
:100F700090F83C0000260D4601280FD0012084F88F
:100F80003C006AB1042A1DD0082A2FD00C2A3FD079
:100F90000126002084F83C00304670BD022070BD60
:100FA000206800F0ABFB2068816941F00801816195
:100FB0002068816921F004018161206881692A69C2
:100FC000114311E0206800F0C9FB2068816941F4F9
:100FD000006181612068816921F4806181612068FC
:100FE00081692A6941EA02218161D2E7206800F023
:100FF000EBFB2068C16941F00801C1612068C1694B
:1010000021F00401C1612068C1692A69114311E01E
:10101000206800F00DFC2068C16941F40061C161E5
:101020002068C16921F48061C1612068C1692A69B1
:1010300041EA0221C161ACE710B5040003D094F885
:101040003D0010B107E0012010BD002084F83C00F5
:10105000204600F01EF8022084F83D00211D206883
:1010600000F0C8FA012084F8460084F83E0084F8B5
:101070003F0084F8400084F8410084F8420084F87E
:10108000430084F8440084F8450084F83D000020C3
:1010900010BD704710B50446022249B104290ED094
:1010A000082913D094F84100012816D0012010BD62
:1010B00094F83E000128F9D184F83E200FE094F81E
:1010C0003F000128F2D184F83F2008E094F8400066
:1010D0000128EBD184F8402001E084F8412001226E
:1010E000206800F0EBFA16492068164A884201D0C1
:1010F000904203D1436C43F4004343642068884228
:1011000013D0B0F1804F10D00F4988420DD00F4955
:1011100088420AD00E49884207D0904205D00D4936
:10112000884202D00C49884204D1816801F007014D
:10113000062903D0016841F001010160002010BDC3
:10114000000001400004014000040040000800408D
:10115000000C0040004001400018004070B5040041
:1011600004D094F83D00002510B106E0012070BDC8
:1011700084F83C50204600F023F8242084F83D00F9
:101180002068C16821F40051C160204600F09CFB3A
:101190002068016921F4904101612068416921F0D2
:1011A0002A0141612068C16841F40051C160256491
:1011B000202084F83D0084F83E00002070BD00002F
:1011C000F0B587B0044614216846FFF7C4F82148FB
:1011D0001F4F266800221F491038022303240725C9
:1011E000BE4215D10E6846F400360E60096801F45F
:1011F00000310591016841F0010101600068694614
:1012000000F0010005900C20CDE90003124818E021
:10121000124FBE421AD10E6846F480260E6009684D
:1012200001F480210591016841F00201016000682C
:10123000694600F0020005904FF44060CDE90003DC
:10124000074802AE86E83400FFF7FEF807B0F0BDAD
:101250000044004040380240000002400048004086
:10126000000402402DE9F84F044690F83E009A46EB
:1012700016460D46202853D1FDB1F6B194F83C0036
:1012800001284DD0012084F83C000027276422204B
:1012900084F83E002763FFF7D5F9A6858146E685E9
:1012A000A0684FF48058404501D1206940B12E46D6
:1012B0005FF0000584F83C7027E00120BDE8F88F5E
:1012C0000026F7E74B46002220212046CDF800A05B
:1012D00000F080FB08B10320F0E726B1A06840458C
:1012E0001BD038B108E020684068C0F3080025F83A
:1012F000020B07E0206980B12068406800F07F00A1
:1013000006F8010BE08D401EE085E08D0028D9D164
:10131000202084F83E000020D0E720684068EFE7F6
:101320000220CBE72DE9F843044690F83D001F4624
:1013300016460D4620284CD1C5B1BEB194F83C00EC
:10134000012846D0012084F83C004FF00008C4F882
:101350004080212084F83D00FFF774F9A68481467F
:10136000E684A068B0F5805F03D004E00120BDE80A
:10137000F883206928B12E465FF0000584F83C8090
:101380000EE00026FAE78021204600F023FBA0B9FA
:10139000AEB116F8010B21684860E08C401EE08475
:1013A000E08C4B464FF0000200970028EBD14FF045
:1013B0004001204600F00EFB30B10320D7E735F89E
:1013C000020BC0F30800E6E7202084F83D0000206F
:1013D000CDE70220CBE7FEE7F0B587B014216846E1
:1013E000FEF7B9FF21480024016841F010010160B7
:1013F000016801F010010591016841F08001016070
:10140000016801F080010591016841F0010101606E
:10141000016801F001010591016841F002010160DC
:101420000068134E00F00200059000226A21304649
:10143000FFF702F90F4F002280213846FFF7FCF832
:101440006A2000900125CDE9015469463046039495
:10145000FEF7FAFF80200090CDE901546946384636
:101460000394FEF7F1FF07B0F0BD000030380240F2
:10147000001002400004024010B596B000240F9402
:1014800010941194129413941C2108A81494FEF73C
:1014900062FF20216846FEF75EFF29482749016068
:1014A00044F29F11C0E9011440F21971C0E903141C
:1014B00044618461FFF780FC08B172B6FEE74FF427
:1014C00080500F900FA91E48FFF7B8FC08B172B604
:1014D000FEE71B48FFF7B0FD08B172B6FEE71394B4
:1014E00013A917481494FFF71FFC08B172B6FEE762
:1014F0006020CDE908040A940B940C940D9400220A
:1015000008A90F480E94FFF731FD08B172B6FEE747
:1015100000944FF40050CDE90440029401940394E8
:10152000694607480794FFF7D5FB08B172B6FEE796
:101530000348FFF7F1FC16B010BD000000000140A9
:1015400014000020FEE7FEE770477047FFF780B801
:1015500030B593B030216846FEF7FDFE14210CA88B
:10156000FEF7F9FE1D480025016841F08051016039
:10157000006800F0805011901948016841F48041E2
:1015800001600068022400F4804011900120039063
:1015900010200490009406940820CDE90750A8205C
:1015A000CDE9090404200B906846FFF7C9F908B19A
:1015B00072B6FEE70CA90F2081E831004FF4A0506D
:1015C0000F904FF48050109005210CA8FFF7CCF835
:1015D000002801D072B6FEE713B030BD403802409B
:1015E000007000400248016841F4700101607047DA
:1015F00088ED00E0F0B50268254C264D264E274FB9
:10160000274B4FF0804CA04209D0604507D0A8423C
:1016100005D0B04203D0B84201D0984204D122F0A4
:10162000700E4A6842EA0E02A0421BD0604519D0F3
:10163000A84217D0B04215D0B84213D0984211D06A
:10164000184DA8420ED0184DA8420BD0174DA842F5
:1016500008D0174DA84205D0164DA84202D0164D0D
:10166000A84203D122F44075CA682A434D6922F08A
:1016700080022A4302608A68C2620A688262A042CB
:1016800001D0984201D10969016301214161F0BD96
:10169000000001400004004000080040000C004031
:1016A0000004014000400140004401400048014066
:1016B00000180040001C00400020004010B501F060
:1016C0001F030121046A99408C430462016A9A4015
:1016D0001143016210BD10B5846842EA032224F46C
:1016E0007F440A432243826010BD826822F0700268
:1016F0000A4342F00701816070470000F0B5026ABA
:1017000022F001020262036A42688469124E24F0E8
:1017100073050C682C4323F002058B682B430D4D99
:10172000A84201D0B04205D123F00807CB683B4363
:1017300023F00403A84201D0B04205D14D6922F440
:10174000407215438A692A43426084614968416353
:101750000362F0BD0000014000040140F0B5026AE0
:1017600022F010020262026A436884690D6824F460
:10177000E64444EA05248D6822F0200242EA05127C
:101780000F4D104EA84201D0B04206D1CF6822F0D2
:10179000800242EA071222F04002A84201D0B04281
:1017A00007D14D6923F4406343EA85038D6943EA19
:1017B000850343608461496881630262F0BD000073
:1017C0000000014000040140F0B5026A22F480727A
:1017D0000262026A4368C46922F4007224F073054D
:1017E0000C68124E2C438D6842EA05220E4DA84229
:1017F00001D0B04206D1CF6822F4006242EA07224B
:1018000022F48062A84201D0B04207D14D6923F48E
:10181000405343EA05138D6943EA05134360C461ED
:101820004968C1630262F0BD00000140000401404C
:1018300030B5026A22F480520262046A4268C369C7
:101840000D6823F4E64343EA05238D6824F400542D
:1018500044EA0534084DA84202D0084DA84204D1FC
:101860004D6922F4804242EA85124260C3614968B0
:101870000164046230BD000000000140000401402A
:1018800010B5036A046A24F001040462846924F038
:10189000F00444EA021423F00A020A43846102625B
:1018A00010BD10B5036A23F0100303628369046A54
:1018B00023F4704343EA023224F0A00343EA011107
:1018C0008261016210BD000070B5044600680169C4
:1018D000E26821F44051114301612169A068E26985
:1018E00008436169114308432168CA6849F20C63DF
:1018F0009A430243CA6020684169A26921F4407199
:101900001143416131492068884202D03049884200
:1019100002D1FEF7D3FF01E0FEF7C0FFE26900232A
:10192000192164253226B2F5004F626828D0A0FB49
:101930000101930F9200FEF797FC0146B0FBF5F012
:101940006FF01802504301EB800006EB0010B0FB73
:10195000F5F000F0F002B1FBF5F002EB0012B1FB84
:10196000F5F06FF01803584301EB800006EB001010
:10197000B0FBF5F000F00F0021681044886070BDE6
:10198000A0FB010192185B41FEF76EFC0146B0FB23
:10199000F5F00201B1FBF5F06FF01803584301EBCD
:1019A000800006EBC000B0FBF5F000F0F80002EBA1
:1019B0004002B1FBF5F0584301EB800006EBC0009C
:1019C000B0FBF5F000F00700D6E700000010014082
:1019D000001401402DE9F041984617460E46044692
:1019E000069D27E0681C25D02DB1FEF72BFEA0EB4D
:1019F0000800A8421ED920680C3050E8001F21F4CE
:101A0000D07140E80012002AF5D12068143050E867
:101A1000001F21F0010140E80012002AF5D120202A
:101A200084F83D0084F83E00002084F83C00032048
:101A3000BDE8F0812068006836EA000004D000208C
:101A4000B842CFD00020F3E70120F9E7FEE709070D
:101A5000090E002804DB00F1E02080F80014704734
:101A600000F00F0000F1E02080F8141D7047000026
:101A70002DE9F0412DED020B9FED3D0B2DED028B7D
:101A80009FED3D8BDDE90254C4F30A50A0F2FF360E
:101A9000142E37DA002E18DA53EC102B9DED020BC2
:101AA00051EC100B00F020FE53EC182B01F0A4F9C0
:101AB00057D2002CA4BF0024254652DA24F000405F
:101AC000284318BF2E4C4CD01AE02E4820FA06F7B7
:101AD00004EA070028431FD053EC102B9DED020BA6
:101AE00051EC100B00F000FE53EC182B01F084F9C0
:101AF00037D2002C03DA4FF48010F0400444BC438A
:101B000000252EE0332E07DCA6F114004FF0FF3144
:101B100021FA00F73D4206D19DED020BBDEC028B90
:101B200002B0BDE8F08153EC102B9DED020B51EC9F
:101B3000100B01F097F953EC182B01F05DF910D25E
:101B4000002C0DDA142E08BF641C09D0C6F1340035
:101B5000012101FA00F02844A84238BF641C054660
:101B6000BD43CDE902549DED020BD7E70000000014
:101B70009C7500883CE4377E0000000000000000F7
:101B80000000F0BFFFFF0F000179407981EA5101A9
:101B90000140C80701D000207047032070470000B3
:101BA0002DE9F04104462DED108B0025204600F074
:101BB00033FB6D1C0646EDB2032811D09FEDF79B59
:101BC0009FEDF8AB9FEDF9CB9FEDFADB9FEDFBEBC3
:101BD0009FEDFCFB9FEDFD8B9FEDFEBB1EB111E366
:101BE000142DE3D30EE36079A179400840EAC110D7
:101BF00000F0B5FF0D4645EC100B074653EC182BD3
:101C000051EC100B00F0FAFF00F03CFDC4F894001A
:101C1000B4F8070000F0A3FF53EC192B00F0EEFF1F
:101C200053EC1A2B00F014FE00F02CFDC4F89800C1
:101C3000207945EC107B00F0010184F86F108008DA
:101C400084F8700053EC182B51EC100B00F0D6FF09
:101C500053EC1F2B01F0D0F836D86079A1794008F9
:101C600040EAC11000F07BFF53EC182B00F0C6FFD8
:101C700053EC1C2B00F086FF26D8B4F8070000F0C8
:101C80006EFF53EC192B00F0B9FF53EC1A2B00F048
:101C9000DFFD00F0F7FC05466079A179400840EAD5
:101CA000C11000F05CFF53EC182B00F0A7FF41ECD3
:101CB000100BFFF7DDFE51EC100B00F021FF04EBE1
:101CC0008000C0F89C509DE26079A179400840EA0C
:101CD000C11000F044FF53EC182B00F08FFF53ECC1
:101CE0001C2B01F089F83CD86079A179400840EAC2
:101CF000C11000F034FF53EC182B00F07FFF9FED74
:101D0000B71B53EC112B00F03DFF2AD8B4F80700A5
:101D100000F025FF53EC192B00F070FF53EC1A2B49
:101D200000F096FD00F0AEFC05466079A179400810
:101D300040EAC11000F013FF53EC182B00F05EFFD7
:101D400053EC1C2B01F09AF841EC100BFFF790FEBE
:101D500051EC100B00F0D4FE04EB8000C0F85051A1
:101D600050E26079A179400840EAC11000F0F7FE26
:101D700053EC182B00F042FF9FED98CB53EC1C2B3B
:101D800001F03AF83CD86079A179400840EAC110E6
:101D900000F0E5FE53EC182B00F030FF9FED911B97
:101DA00053EC112B00F0EEFE2AD8B4F8070000F037
:101DB000D6FE53EC192B00F021FF53EC1A2B00F048
:101DC00047FD00F05FFC05466079A179400840EAD4
:101DD000C11000F0C4FE53EC182B00F00FFF53ECC1
:101DE0001C2B01F04BF841EC100BFFF741FE51ECBE
:101DF000100B00F085FE04EB8000C0F8045201E2F5
:101E00006079A179400840EAC11000F0A8FE53ECC7
:101E1000182B00F0F3FE9FED73CB53EC1C2B00F05E
:101E2000EBFF3AD86079A179400840EAC11000F090
:101E300096FE53EC182B00F0E1FE53EC1D2B00F046
:101E4000A1FE2AD8B4F8070000F089FE53EC192B44
:101E500000F0D4FE53EC1A2B00F0FAFC00F012FC58
:101E600005466079A179400840EAC11000F077FE8C
:101E700053EC182B00F0C2FE53EC1C2B00F0FEFFBD
:101E800041EC100BFFF7F4FD51EC100B00F038FEA5
:101E900004EB8000C0F8B852B4E16079A179400841
:101EA00040EAC11000F05BFE53EC182B00F0A6FED8
:101EB00053EC1D2B00F0A0FF3AD86079A1794008BF
:101EC00040EAC11000F04BFE53EC182B00F096FED8
:101ED00053EC1E2B00F056FE2AD8B4F8070000F091
:101EE0003EFE53EC192B00F089FE53EC1A2B00F048
:101EF000AFFC00F0C7FB05466079A179400840EAD5
:101F0000C11000F02CFE53EC182B00F077FE53ECC0
:101F10001D2B00F0B3FF41EC100BFFF7A9FD51ECB6
:101F2000100B00F0EDFD04EB8000C0F86C5369E18C
:101F30006079A179400840EAC11000F010FE53EC2E
:101F4000182B00F05BFE53EC1E2B00F055FF6AD8F7
:101F50006079A179400840EAC11000F000FE53EC1E
:101F6000182B00F04BFE9FED211B53EC112B00F0C2
:101F700009FE58D8B4F8070000F0F1FD53EC192B16
:101F800000F03CFE53EC1A2B00F062FC00F07AFBF0
:101F900005466079A17940082CE0000000000000AF
:101FA0000000D03F000000000000244000000000BE
:101FB00000804640000000000080664000000000F5
:101FC00000206C4000000000000000000000000045
:101FD0000000903F0000000000B0734000000000CF
:101FE000008056400000000000E06040000000005B
:101FF00000E0704040EAC11000F0B1FD53EC182B36
:1020000000F0FCFD53EC1E2B00F038FF41EC100BF0
:10201000FFF72EFD51EC100B00F072FD04EB800079
:10202000C0F82054EEE06079A179400840EAC11080
:1020300000F095FD53EC182B00F0E0FD1FED15CBE3
:1020400053EC1C2B00F0D8FE3AD86079A1794008F7
:1020500040EAC11000F083FD53EC182B00F0CEFDD8
:1020600053EC1B2B00F08EFD2AD8B4F8070000F0CB
:1020700076FD53EC192B00F0C1FD53EC1A2B00F048
:10208000E7FB00F0FFFA05466079A179400840EAD5
:10209000C11000F064FD53EC182B00F0AFFD53ECC1
:1020A0001C2B00F0EBFE41EC100BFFF7E1FC51ECB8
:1020B000100B00F025FD04EB8000C0F8D454A1E023
:1020C0006079A179400840EAC11000F048FD53EC66
:1020D000182B00F093FD53EC1B2B00F08DFE11D854
:1020E0006079A179400840EAC11000F038FD53EC56
:1020F000182B00F083FD9FED461B53EC112B00F0D5
:1021000041FD23D96079A179400840EAC11000F06F
:1021100026FD53EC182B00F071FD53EC1F2B00F043
:102120006BFE6FD86079A179400840EAC11000F0D9
:1021300016FDB0EE481AF0EE681A53EC112B00F0C1
:102140005DFD53EC1F2B00F01DFD5BD86079A1797C
:10215000400840EAC11000F002FD884648EC100B30
:10216000054653EC182B51EC100B00F047FD53ECD7
:102170001B2B00F083FE41EC100BFFF779FC51ECB8
:10218000100B00F0BDFC0028B4F8070019DD00F0CA
:10219000E6FC53EC192B00F031FD53EC1A2B00F048
:1021A00057FB00F06FFA48EC105B074653EC182B16
:1021B00051EC100B00F022FD53EC1B2B00F05EFEE7
:1021C00014E000F0CCFC53EC192B00F017FD53EC9D
:1021D0001A2B00F03DFB00F055FA48EC105B074667
:1021E00053EC182B51EC100B00F008FD41EC100BD8
:1021F000FFF73EFC51EC100B00F082FC04EB80007A
:10220000C0F888753046BDEC108BBDE8F081000049
:10221000000000000080764010B50446006864238A
:102220000522211DFFF71EF808B1012010BD204630
:10223000BDE81040FFF7A8BC0179A5290FD141796D
:102240005A290CD18179052909D1C17939B9017A85
:1022500029B9417A402902D1817A812901D002200D
:10226000704700214218491C1379C9B282F86830BE
:102270000729F7D30020704708B506A16423096831
:102280000091006802226946FFF74CF81420FEF71F
:10229000C9F808BDA525000038B504460AA0642386
:1022A00000680090022269462068FFF73BF864232B
:1022B0000722211D2068FEF7D5FF08B1012038BD97
:1022C0002046FFF7B9FF38BDA5200000E64C94B0CA
:1022D00004F188063460FEF7C3F9FFF739F9FFF718
:1022E0007BF8FFF7C9F8E14820604FF4E13700259B
:1022F000C4E901754FF00C08E560C4E90458A56114
:102300002046E561FEF72AFF08B172B6FEE7D6481F
:10231000D7494430C0E9001700218160C160C0E99D
:1023200004188161C161FEF719FF08B172B6FEE7BA
:10233000D04940F21A704863CB4800214838FEF774
:10234000A9FEC9488830FFF797FF4FF47A70FEF76F
:1023500069F8C94C002240212046FEF76DF90A2099
:10236000FEF760F8012240212046FEF765F9C34CD4
:10237000BD488830FFF790FF20700028F8D1BA4898
:102380008830FFF70DFCBD490870002103910291D0
:102390000B460A46059104910F468B468E460891DE
:1023A00089468A460E460D460C460C91AE48DFF82B
:1023B000D0C2883000EB840090ED270A10EE108A1E
:1023C000E0450ADB00EE901A7F1CF8EEE00A30EEE2
:1023D000200ABDEEC00A10EE101A90ED540ADFF884
:1023E000A0C210EE108AE0450BDB00EE903A0BF134
:1023F000010BF8EEE00A30EE200ABDEEC00A10EE46
:10240000103A90ED810ADFF8788210EE10CAC445C8
:102410000BDB00EE902A0EF1010EF8EEE00A30EE32
:10242000200ABDEEC00A10EE102A90EDAE0A10EEA2
:1024300010CAC44513DBDDF814C000EE90CAF8EEF4
:10244000E00A30EE200ABDEEC00A10EE10CACDF848
:1024500014C0DDF830C00CF1010CCDF830C090EDA7
:10246000DB0ADFF81C8210EE10CAC4450FDBDDF872
:1024700010C009F1010900EE90CAF8EEE00A30EE52
:10248000200ABDEEC00A10EE10CACDF810C000F54B
:1024900080687B4898ED080A10EE10CA84450FDB6F
:1024A000DDF80CC00AF1010A00EE90CAF8EEE00A6D
:1024B00030EE200ABDEEC00A10EE10CACDF80CC0F6
:1024C00098ED350A10EE10CA84450EDBDDF808C021
:1024D000761C00EE90CAF8EEE00A30EE200ABDEE5F
:1024E000C00A10EE10CACDF808C098ED620A10EECE
:1024F00010CA84450CDB08986D1C00EE900AF8EEBB
:10250000E00A30EE200ABDEEC00A10EE100A089074
:10251000641C2D2CFFF64AAF91FBF7F000EE100A79
:1025200093FBFBF45048B8EEC00A883080ED1D0ADA
:1025300000EE104A92FBFEF4B8EEC00A80ED1E0ACF
:1025400000EE104AB8EEC00A80ED1F0ADDF830C078
:10255000059C94FBFCF400EE104AB8EEC00A80ED36
:10256000200A049C94FBF9F400EE104AB8EEC00A6D
:1025700080ED210A039C94FBFAF400EE104AB8EEB9
:10258000C00A80ED220A029C94FBF6F400EE104A89
:10259000B8EEC00A80ED230A089C94FBF5F400EE27
:1025A000104AB8EEC00A80ED240A0020109091FB7A
:1025B000F7F0642805DA9DF8400040F001008DF83E
:1025C000400093FBFBF0642805DA9DF8400040F0E2
:1025D00002008DF8400092FBFEF0642805DA9DF8B9
:1025E000400040F004008DF840000C9A059890FBE4
:1025F000F2F0642805DA9DF8400040F008008DF8FC
:102600004000049890FBF9F0642805DA9DF840003A
:1026100040F010008DF84000039890FBFAF0642819
:1026200005DA9DF8400040F020008DF84000029847
:1026300090FBF6F0642805DA9DF8400040F0400079
:102640008DF8400091FBF5F0642805DA9DF8400014
:1026500040F080008DF8400003486423012210A957
:102660004430FEF75FFE8AE65C0000200044004034
:10267000004800400000014000100240000000201F
:10268000CDCCCC3D21F00042A2F16052B2F5801FCA
:1026900001F0004328BFD2F17F6C0BD95FEA001C28
:1026A00043EAC20242EB507018BF704728BF20F0C7
:1026B00001007047B2F5801FBCBF184670474FEA53
:1026C000410C1CF5001F02D2084600F0C6BC70B5D4
:1026D00000F03EFB00000089FFF7F6BF4FF000401E
:1026E000A0F580007047000010B591EA030F48BFC5
:1026F00083F0004300F1CA83841A71EB030C05D206
:10270000121943EB0C03001B61EB0C01DFF824E111
:102710004FEA1154A4EB135C1EEA430F18BF9EEA64
:10272000445F73D023EA0E03DCF1200E21EA04514A
:1027300043F4801332D322FA0CFE10EB0E0023FA7E
:102740000CFE41EB0E01CCF1200E03FA0EFE10EB55
:102750000E0051F10001B1F5801FCCF1200E32D2F4
:1027600001EB045112FA0EF2BDE8104058BF704759
:10277000401C38BF5FEA420218BF7047002814BFF0
:1027800020F0010041F100014FEA410313F5001F61
:1027900038BF7047A1F1C04100F028BB012A43EBCC
:1027A0000302ACF1200CDCF11F0E32BF4FF0000E23
:1027B00023FA0CF310EB030041EB0451B4EB115F6F
:1027C000D0D0A1EB045101F5801149085FEA300037
:1027D00001EB04510ED350F1000038BF12FA0EFE87
:1027E00008D1BDE81040C9E7401C38BF5FEA42028B
:1027F000CAD1C3E7BDE810404FEA410313F5001FFB
:1028000038BF7047A1F1C04100F0F0BA9EEA445FC2
:1028100008D011EA5E0FBDE8104004BF01F000418E
:1028200000207047BDE8104070B500F091FA00BF7D
:1028300064FBBE3E0000E0FF491058BFC1F14041BB
:102840005B1058BFC3F140438B42EFF300807047E9
:102850002DE9C04130B4DFF8A0C23CEA111418BF22
:102860003CEA131400F0EC8081EA03051CEA111421
:1028700044EAD57418BF1CEA131500F0C780A4EB16
:1028800005044FF0004545EAC12145EAC32341EA6A
:10289000505143EA525304F17F74994204F50034D5
:1028A0004FEAC0204FEAC22208BF904200F09C804D
:1028B0004FEA13650FF24016765D4FEA134506FBAB
:1028C00005F7C7F1807706FB07F74FEAD737A7FB75
:1028D00003687642C8F58038A7FB06CE38BFA8F15A
:1028E000010807FB08E64FF0000EA6FB028CE6FB92
:1028F00003CEDCF1000CCEF1004E38BFAEF1010E7C
:10290000A6FB0C584FF000074FF00005E6FB0E87C2
:10291000A1FB08C6A0FB07CE16EB0E0645F100058D
:10292000E1FB076515F1E04E7EBFA4F580345FEA58
:1029300046066D4116F1800745F100054FEA17275D
:102940004FEA066647EA0567A6F1DE46B6F1805F04
:102950004FEA15251FD9384624F0010C05EBC47148
:10296000BCF1FE6F01EB0C1102D8F0BCBDE8008198
:1029700024425CBF01F5801E9EEAC47F02D4F0BCF5
:10298000BDE80081244238D4F0BCA1F1C041BDE8CB
:10299000004100F02BBA4FEAD22242EA43524FEAFA
:1029A000D323A7FB02864FEAD02040EA415007FB21
:1029B00003661EEA0E0F4FEAD12105FB026658BFDF
:1029C000A6EB0056B6EB00564FEA520E4EEAC37E17
:1029D00018EB0E0E56EB530EBDD518EB02085E41F8
:1029E0007F1C55F10005B6E74FF480154FF0000746
:1029F0004FF000064FF00008ADE7F0BC4FF00000CC
:102A000001F1C04101F00041BDE8008111EA0C1F55
:102A10000CEA131500D00CE013EA0C1F00F025801F
:102A20004FF00000F0BC81EA030101F00041BDE875
:102A30000081F0BCBDE8004181EA030100F0D6B995
:102A4000F0BCBDE8004170B500F082F9097EFC3EA3
:102A500000F007B881EA03014FF0000001F00041E7
:102A6000704781EA030100F0C1B9F0BCBDE8004144
:102A70004FF0000021497047FFFDFBF9F7F5F4F234
:102A8000F0EEEDEBE9E8E6E4E3E1E0DEDDDBDAD809
:102A9000D7D5D4D3D1D0CFCDCCCBCAC8C7C6C5C467
:102AA000C2C1C0BFBEBDBCBBBAB9B8B7B6B5B4B37E
:102AB000B2B1B0AFAEADACABAAA9A8A8A7A6A5A469
:102AC000A3A3A2A1A09F9F9E9D9C9C9B9A9999982D
:102AD0009797969595949393929191908F8F8E8ED0
:102AE0008D8C8C8B8B8A898988888787868585845D
:102AF00084838382828181800000FF070000F87F49
:102B00004FEA41034FEA5353A3F58063D3F11E0309
:102B1000C8BFD3F1210C0CDD4FF0004242EAC122C4
:102B200042EA505232FA03FC8CEAE17CACEBE170F1
:102B30007047102BC4BF0020704703F5787CBCF1B0
:102B4000FF3F04D06FF0004282EA2100704770B569
:102B500000F0FEF84992248000207047F2E7B0FAB6
:102B600080F310FA03F10AD0C3F11D0303F580636B
:102B70004FEA41504FEA035202EBD12170474FF028
:102B80000000704751EA030C17D41CF5801F58BF92
:102B9000BCF5801F00F10680994218BF704708BF3E
:102BA0009042704707D711F5801F58BF13F5801F5B
:102BB00019D499427047894270471CF5801F08D587
:102BC000BCF5801FF7D58B4218BF704708BF824203
:102BD00070474FF4001C1CEB410F38BF1CEB430F38
:102BE00001D28B42704770B500F0B2F892244900D0
:102BF0004FF000514FF08053FFF71EBEDFF848C181
:102C000070B51CEA111E1EBF1CEA13159EEA0C0FBC
:102C100095EA0C0F00F06F8081EA030423EA4C135D
:102C20004EEAD47E21EA4C1141F4801143F4801322
:102C3000AE44A1FB024CA0FB0365AEF17F7E3619CA
:102C400055EB0C05A1FB034C4CF10003A0FB021C4F
:102C500016EB0C06654153F10003094218BF46F01C
:102C6000010613F4007F0BD14FEA03314FEA053020
:102C7000340341EA155140EA16506FF003020AE0AE
:102C80004FEAC3214FEAC520F40241EA555140EA18
:102C900056506FF0020202EB2E4201EB025585EA1C
:102CA000CE710AD05FEA440C18BF24F0004450F102
:102CB000000041F1000120EAD47040F2FE7C624540
:102CC00000D270BDA84214BF4FF080444FF0404482
:102CD000002E08BF0024BEF1806FA8BFA1F1C04143
:102CE000BDE8704080F282804FF0000001F1C041E9
:102CF00001F0004170479EEA0C0F0CEA131518BF53
:102D000095EA0C0F06D04FF0000081EA030E0EF09A
:102D1000004170BD00F01CF88900013E00F007B8CA
:102D200000F009B84FEA430C5FEA5C5C08D081EA26
:102D3000030100F05BB84FEA410C5FEA5C5CF6D13E
:102D40004FF00000014970470000FF070000F87FC6
:102D50000EF1020E2EF0030E5EF8046B364205D41F
:102D6000012A43EB030515F5001F12D8012841EB9A
:102D7000010C1CF5001F0CD80ED14FEAD17C15F5C3
:102D8000001F0CEB4C0C0CF1020C08BF4CEBD37C7D
:102D900004E04FF0080C01E04FEAD37C0CEB4C054B
:102DA00026FA05F606F00706B6F1040C06D20EEB7D
:102DB000860CBDE870404CF0010C6047DFE80CF079
:102DC000090B02024FF000414FF00000A1F5002175
:102DD00070BD19461046012851EB010418BFD4F507
:102DE000001484BF002001F0004170BD0808A0F568
:102DF00000114FEA3101704753EA010C17D41CF55A
:102E0000801F58BFBCF5801F00F106808B4218BFA1
:102E1000704708BF8242704707D713F5801F58BF1D
:102E200011F5801F19D48B4270479B4270471CF5E7
:102E3000801F08D5BCF5801FF7D5994218BF704791
:102E400008BF904270474FF4001C1CEB430F38BF83
:102E50001CEB410F01D2994270470FB40CBC03BC6C
:102E6000FFF7C1BE91EA030F10B581F000413FF5B5
:102E700043AC83F0004300F009B8000010B591EABC
:102E8000030F48BF83F000433FF536AC841A71EB63
:102E9000030C07D212198CF0004C43EB0C03001BFF
:102EA00061EB0C01DFF8A4E14FEA1154A4EB135CD1
:102EB0001EEA430F18BF9EEA445F00F0B08023EA89
:102EC0006E03524221EA0451C3EB6E0338BF5B1E0E
:102ED000DCF1200E25D322FA0CFE10EB0E0043FA93
:102EE0000CFE41EB0E01CCF1200E03FA0EFE10EBAE
:102EF0000E0051F10001CCF1200E29D412FA0EF28D
:102F000001EB0451BDE8104058BF7047401C1CBF86
:102F1000B2F1004F704700280CBF491C20F001009F
:102F2000704712EB020E43EB030218BF4FF0010E85
:102F30004EEA4202ACF1200CDCF11E0E54D943FAE9
:102F40000CFE10EB0E0051F1FF31CCF11E0ED5D569
:102F50000EF1010E12FA0EFE404141EB010101EBB0
:102F6000445C5FEA5C5C10D910EBDE7001EB04514D
:102F700038BFBEF1004FBDE8104018BF70470028B1
:102F80000CBF491C20F00100704730D24FEAD42C0E
:102F900011F5001124F400641BD0B1FA81F20B3A50
:102FA000A41AA41ED2F12003914030FA03F319436E
:102FB000904001EBCC71002C01EB0451BDE81040B6
:102FC000A8BF704701F1C0414FF0000001F000417F
:102FD0007047B0FA80F310FA03F100D110BDE41A83
:102FE000173C4805C90AE4E701EB045110BD49103C
:102FF00001EB0451BDE810404FEA300002E04FF011
:10300000000170474A0008BF0042F8D0B2F5001F27
:1030100028BF704701F000414FF0000070479EEA62
:10302000445F07D011EA5E0FBDE8104004BF0021E5
:1030300000207047BDE8104070B5FFF789FE00BF63
:1030400040DFF63E83F00041104670470000E0FF8D
:103050004FF04070E1EE100A7047FF2141EAD05076
:10306000C0057047000000000000000001020304DA
:103070000607080900000000010203049C30000854
:103080000000002014000000C4010008B030000857
:10309000140000206C0D0000E0010008000000009A
:1030A0000100000010000000000000000024F400F7
:040000050800018965
:00000001FF
